:020000040800F2
:10000000E8060020B501000825150008991400082D
:10001000211500088D0200084516000800000000A8
:100020000000000000000000000000002D16000885
:100030009102000800000000291500083116000890
:10004000CF010008CF010008CF010008CF01000850
:10005000CF010008CF010008CF010008CF01000840
:10006000CF010008CF010008CF010008CF01000830
:10007000CF010008CF010008CF010008CF01000820
:10008000CF010008CF010008CF010008CF01000810
:1000900039160008CF010008CF010008CF01000881
:1000A000CF010008CF010008CF010008CF010008F0
:1000B000CF010008CF010008CF010008CF010008E0
:1000C000CF010008CF010008CF010008CF010008D0
:1000D000CF010008CF010008CF010008CF010008C0
:1000E000CF010008CF010008CF01000800F002F89E
:1000F00000F050F814A696E8000CB244B344DA4578
:1001000001D100F047F8BAE80F000FA696E83000DA
:10011000A5EB040504EB0607AAEB0704A7F101070A
:100120004FEA15154FEA3414A4F10104AC4201D38F
:1001300000F030F813F0010F18BFFB1A43F0010371
:1001400000F001F8DBE71847A42E0000C42E0000E1
:10015000103A24BF78C878C1FAD8520724BF30C8F3
:1001600030C144BF04680C60704700007047000055
:100170000023002400250026103A28BF78C1FBD8B0
:10018000520728BF30C148BF0B6070471FB51FBD65
:1001900010B510BD00F044F81146FFF7F7FF01F06D
:1001A00047FF00F062F803B4FFF7F2FF03BC00F072
:1001B00065F800000948804709480047FEE7FEE768
:1001C000FEE7FEE7FEE7FEE7FEE7FEE7FEE7FEE707
:1001D00004480549054A064B7047000035160008DB
:1001E000ED000008E8000020E8060020E8020020FA
:1001F000E802002070477047704710B500F008F81B
:10020000006810BD10B5044600F002F8046010BD8F
:100210000048704710000020004870471000002080
:100220007546FFF7F9FFAE4605006946534620F0D4
:100230000700854618B020B5FFF7CAFFBDE820408B
:100240004FF000064FF000074FF000084FF0000B92
:10025000AC46ACE8C009ACE8C009ACE8C009ACE801
:10026000C00921F007018D46704710B50446AFF371
:1002700000802046BDE81040FFF795BF01491820D7
:10028000ABBEFEE72600020070470000FEE700005C
:1002900070470000EFF3108072B600BFFEE7000069
:1002A00090F82020013A012A08D8006800F11402D1
:1002B0000020136819431160704700BF00F1240249
:1002C00001204FF48021136819431160704700002A
:1002D00010B590F820E0D0F800C0AEF1010EBEF1EC
:1002E000010FDCF808E011D81EF0E05F18D0CEF363
:1002F00001640120A04018608B68DBB1D1F804E0F4
:10030000C86840EACE0040EA030E17E000F124037B
:1003100001204FF480211A681143196010BD00BFFD
:1003200000F1240301204FF400111A6811431960F1
:1003300010BD00BF0868CB6843EA405E0CF5C07092
:1003400000EB0413240140F804E00C69184640F85F
:10035000044F097D012903D1016841F480710160D6
:1003600050680121D8601068986000201A68114315
:10037000196010BD026890F82030013B012B29D88C
:10038000B0B5D2F80002012340F00100C2F800022B
:10039000D1F814E0CC690EF01F0003FA00F0D2F897
:1003A0001C326FEA000C8343012CC2F81C3217D0B8
:1003B0006CBBD2F80C3203EA0C03C2F80C32CB68E7
:1003C0008C8844EA034302EBCE04C4F840320B4667
:1003D00015E000BF416A41F480214162012070476D
:1003E000D2F80C320343C2F80C320B688C8844EA12
:1003F000034302EBCE04C4F8403201F10C038D68D4
:100400001B8802EBCE0443EA0543C4F84432D2F819
:1004100004328C6943EA0005D1F810E0096A002C27
:1004200008BF03EA0C05C2F80452D2F81432BEF138
:10043000000F43EA000408BF03EA0C040129C2F8D4
:10044000144204D1D2F81C120843C2F81C02D2F89C
:10045000000220F00100C2F800020020B0BD000040
:1004600070470000B0B590F82040013C012C7DD8C9
:10047000D0F800C000290CBFDCF80C40DCF81040BC
:10048000A4077DD00CF5D8754FEA011C55F80C4037
:1004900014F00404946055F80CE005EB011C19BF3E
:1004A0004FEADE0555604FEA5E551560DCF80050F6
:1004B000E64605F00205D5605EF8044F24075ABFF2
:1004C000DEF8004004F00F0408241461DEF8004058
:1004D0000029C4F307249461DEF800504FEA154563
:1004E0005561DCF808201A70026802EB0112D2F89C
:1004F000B8214FEA12225A70026802EB0112D2F8B8
:10050000B8214FEA12429A70026802EB0112D2F847
:10051000B8214FEA1262DA70026802EB0112D2F8D7
:10052000BC211A71026802EB0112D2F8BC214FEA19
:1005300012225A71026802EB0112D2F8BC214FEA72
:1005400012429A71026802EB0112D2F8BC214FEA02
:100550001262DA7100680CBF00F10C0100F11001A9
:10056000002020220B681A430A60B0BD00F124016C
:1005700001204FF480220B681A430A60B0BD00BF0F
:1005800000F1240101204FF400120B681A430A60A5
:10059000B0BD000090F820100139012984BF00206F
:1005A00070470068816882688068C1F38061C2F327
:1005B000C0621144C0F30070084470472DE9F04F49
:1005C00081B0044600684669D0F804908768D0F886
:1005D0000CB0D0F810A0D0F81880F10704D1002595
:1005E00030071DD424E000BFF90710D00121BA075D
:1005F000816009D4780700F1AF80380700F1B68038
:10060000204600F06FFA02E0204600F06DFA002567
:10061000F80500F18780F80300F1B180300707D5B5
:100620001BF0100004D0206845F400751021C16053
:10063000700708D51BF0080005D020680821C160AC
:10064000204600F0ADF9B00706D52068C0688007E5
:1006500002D0204600F0A6F9700607D51AF0100067
:1006600004D0206845F4806510210161B00608D5EA
:100670001AF0080005D0206808210161204600F02A
:10068000FDF9F00606D520680069800702D02046F3
:1006900000F0F6F9B00308D519F0100005D0206875
:1006A00010214160204600F0EDF9F00308D519F063
:1006B000080005D0206808214160204600F01EFA9D
:1006C000300440F19B805FEA497040F1948006F469
:1006D000807008EA102028435FEA8871014648BF0D
:1006E00041F00201B20558BF01465FEA48700D466D
:1006F00048BF45F00405700558BF0D46300540F170
:100700007A8018F0700000F0768010380009052813
:100710006CD8DFE800F003655D61596945F00805B4
:1007200064E000BF20684FF48071BA0581600BD48B
:10073000780515D438051DD4204600F0D7F9F80304
:100740007FF56CAF1BE000BF204600F0D1F9F80345
:100750007FF564AF13E000BF4FF4006558E700BFBA
:1007600005F50055F8037FF559AF08E04FF48055C3
:100770004EE700BF05F58045F8037FF54FAF2068D1
:100780004FF48031BA0381600AD4780310D438035F
:1007900014D4204600F0AEF930073FF541AF47E7EB
:1007A000204600F0A9F930073FF53AAF40E700BF17
:1007B00005F5004530073FF533AF39E705F58035DE
:1007C00030073FF52DAF33E745F080050EE000BF61
:1007D00045F020050AE000BF45F0400506E000BFF7
:1007E00045F0100502E000BF45F48075206881697E
:1007F00021F07001816120680421416055B1606A77
:1008000040EA05012046616201B0BDE8F04FFFF704
:1008100027BE00BF01B0BDE8F08F0000002804BF74
:1008200001207047B0B5044690F8200010B920466A
:1008300000F06EF82068016841F00101016000F0ED
:100840007BFA054620684168C90705D100F074FAB3
:10085000401B0B28F6D310E0016821F00201016073
:1008600000F06AFA054600BF2068416889070DD587
:1008700000F062FA401B0B28F6D3606A052140F4B1
:1008800000306062012084F82010B0BD217E026833
:10089000012922F0800208BF80320260617E026876
:1008A000012922F0400208BF40320260A17E0268A6
:1008B000012922F0200208BF20320260E17E026896
:1008C000012922F0100218BF10320260217F026855
:1008D000012922F0080208BF08320260617F026825
:1008E000012922F0040208BF04320260D4E901C2E7
:1008F000D4E9033561691A432A431143ACF101027B
:100900001143C16100200121606284F82010B0BD54
:10091000B0B586B040F60004C4F201040068A4F546
:100920002442002190420591CDE90311029101D0AA
:1009300006B0B0BD41F21800C4F20200426802AD38
:1009400042F000724260426802F000720192019A25
:10095000026842F004020260006800F004000190A6
:1009600001984FF40060CDE9020104912046294628
:1009700000F0DAF84FF48050029002200390032038
:1009800005902046294600F0CFF8142000210022CF
:1009900000F052FA142000F03DFA06B0B0BD00009D
:1009A0007047000010B58AB0002103AA6B46CDE95C
:1009B0000011FFF757FD08B10AB010BD0398A0F26F
:1009C00081114FEA3121032926D8DFE801F0050320
:1009D000111B00BFF0E700BFBDF8000040F270013E
:1009E000C2F200018884BDF80200C8840AB010BDBC
:1009F00040F27000DDE90012C2F200008162C262C2
:100A00000AB010BDBDF8000040F27001C2F2000152
:100A100008860AB010BD00BF00F4F061B1F5E06FC8
:100A20000CD140F27004C2F20004012084F83800B6
:100A300000F082F960630AB010BD00BF40F281513E
:100A40008842B9D1BDF8010046F264018842B3D1B1
:100A50009DF803100198022908D00129ACD140F279
:100A60007001C2F2000188620AB010BD40F270014C
:100A7000C2F20001C8620AB010BD00007047000059
:100A80007047000070470000B0B5044690F82000A1
:100A900001281DD1022084F820002068016821F07F
:100AA0000101016000F048F9054600BF2068406878
:100AB000C00713D000F040F9401B0B28F6D3606A42
:100AC00040F400306062052084F820000120B0BDB1
:100AD000606A40F4002060620120B0BD00206062C6
:100AE000B0BD000070470000704700007047000074
:100AF000704700007047000070470000704700001A
:100B0000B0B5044600F018F9054640F20000C2F204
:100B100000000078611C18BF044400BF00F00CF90D
:100B2000401BA042FAD3B0BD2DE9F04F82B00E6851
:100B3000002E00F0FD8041F20042C4F201020423C5
:100B400040F2004E904208BF03234FF6FF7CC4F2F0
:100B5000010E009300240123C1F2100C4FF0000A93
:100B60004FF000094BE000BF41F20002C4F2010265
:100B7000009F904208BF022704F00C030F229A4006
:100B80002BEA020207FA03F34FEA9A051A4346F8E2
:100B900025204E6840F20C45F202DEF8082054BFD2
:100BA00022EA080242EA0802C4F20105CEF808204F
:100BB0002A68B30254BF22EA080242EA08022A6005
:100BC000B303DEF8042054BF22EA080242EA080216
:100BD000F303CEF80420DEF800204FF0010354BFE9
:100BE00022EA080242EA0802CEF800200E680AF162
:100BF000010A36FA0AF204F1040400F0998003FABB
:100C00000AFB16EA0B08F1D04E68664512DC122E7C
:100C100056D8DFE806F0350B4D4955555555555515
:100C20005555555555555545510000BFD1F80C90B7
:100C300046E000BF4FF6FF72C1F2210296420FDC80
:100C40000022C1F2110296421AD00022C1F2120211
:100C5000964215D00022C1F22102964210D02FE018
:100C60000022C1F2220296420AD00022C1F23102D1
:100C7000964205D00022C1F23202964220D100BF36
:100C80008A684AB1012A14BFC0F814B0C0F810B085
:100C90004FF0080914E000BF4FF0040910E000BF56
:100CA000CA6802F104090BE04FF0000908E000BF38
:100CB000CA6802F1080903E0CA6802F10C0900BF22
:100CC00002462646B8F5807F24BF0432203E1768CE
:100CD0000F25B54027EA050509FA06F635431560E4
:100CE000CA79D2067FF582AF41F21803C4F202033B
:100CF0001A68AEF57E7642F001021A601A6802F0B8
:100D000001020192019A2AF0030256F802B040F65D
:100D10000002C4F20102904208D040F60042C4F240
:100D2000010290427FF420AF012725E7002723E747
:100D300002B0BDE8F08F000040F2E400C2F2000013
:100D40000068704740F2000040F2E401C2F2000087
:100D5000C2F2000100780A68104408607047000081
:100D600080B542F20000C4F20200016841F01001B7
:100D70000160032000F08CF80F2000F005F800F06F
:100D800027F8002080BD000070B540F20006C2F2D6
:100D9000000640F208013278C2F200014FF47A7383
:100DA0000968B3FBF2F20446B1FBF2F1084600F029
:100DB0005DFB0F2C4FF0010508D838B94FF0FF301C
:100DC00021460022002500F037F87460284670BDE7
:100DD00082B041F21800C4F202000168022241F020
:100DE00001010160016801F001010191019941686F
:100DF00041F080514160406800F0805000900098C0
:100E00000420C4F20100016862F31A61016002B0BB
:100E100070470000002848BF704700F01F01012202
:100E200002FA01F11C2202EAD0004EF20012CEF2C8
:100E3000000281507047000010B54EF60C5CCEF2F7
:100E4000000CDCF80030C3F3022E8EF00704042CF3
:100E500028BF0424BEF103034FF0FF3E0EFA04F452
:100E600038BF0023A14399400EFA03F39A4311437C
:100E700000F00F0200F160430901043A03F56443F6
:100E80006244002848BF02F10C03197010BD000035
:100E90004EF60C51CEF200010A684FF6FF031A40DD
:100EA00060F30A2242F0806040F0FD7008607047F5
:100EB000002804BF012070472DE9F04381B042F2C1
:100EC0000008C4F202080446D8F800000D4600F0FD
:100ED000070088420CD2D8F8000020F00700284311
:100EE000C8F80000D8F8000000F00700A8426CD154
:100EF000206841F204098107C4F2020917D54107AD
:100F000005D5D9F8001041F4E061C9F800100107D7
:100F100005D5D9F8001041F46051C9F80010D9F88E
:100F20000010A26821F0F0011143C9F80010C007B9
:100F300042D1D8F8000000F00700A8420CD9D8F838
:100F4000000020F007002843C8F80000D8F800008F
:100F500000F00700A84238D12068410707D5D9F82A
:100F60000010E26821F4E0611143C9F800100007A5
:100F700008D5D9F80000216920F4605040EAC1008A
:100F8000C9F80000D9F8002002F00C00082841F24E
:100F90000020C0F27A004DD142F6DA73C2F38341E9
:100FA000C0F60003595CD20338D440F60010C0F2FA
:100FB0003D0048433EE000BF606859F8041C022829
:100FC00008D0012826D1890306D4012001B0BDE84C
:100FD000F08300BF8901F8D5D9F8001021F0030192
:100FE0000843C9F80000FFF7A7FE064641F288371C
:100FF000D9F80000616800F00C00B0EB810F98D0C8
:10100000FFF79AFE801BB842F2D9032001B0BDE879
:10101000F08300BF8907D8D5DEE700BFD9F80020EC
:1010200042F6D873C2F34042C0F600039A5C4843CC
:10103000B0FBF2F0D9F8001042F6C872C1F3031108
:10104000C0F60002515C40F2080220FA01F140F2C1
:101050000400C2F200000068C2F200021160FFF753
:1010600093FE002001B0BDE8F0830000002804BF1B
:10107000012070472DE9F04182B00446007841F22A
:101080000006C007C4F202060CD0706800F00C0025
:10109000042840F081803068800303D56068002810
:1010A00000F04681207880071BD5706810F00C0F87
:1010B00009D0706800F00C00082840F08780706844
:1010C000C00300F183803068800703D520690128C0
:1010D00040F02E813068616920F0F80040EAC100DC
:1010E00030602078000713D4207840072CD4E569BD
:1010F000002D00F01881706800F00C00082840F006
:10110000A780012D40F00481012002B0BDE8F081EC
:10111000A069002800F084800020C4F24220012150
:10112000C0F88014FFF708FE054600BF706A80070C
:1011300000F1B280FFF700FE401B0228F6D9032021
:1011400002B0BDE8F08100BFF0695FEAC00808D4D2
:10115000F06940F08050F061F06900F0805000903C
:10116000009847F20007C4F200073868C00549D468
:10117000386840F480703860FFF7DEFD054600BF38
:101180003868C0053ED4FFF7D7FD401B6428F7D967
:10119000032002B0BDE8F081706800F00C00082860
:1011A00003D17068C0033FF576AF616830680029ED
:1011B00000F00C81B1F5A02F00F00081B1F5803F67
:1011C00040F01A8140F480301CE100BF2069002803
:1011D00040F20000C4F2422000F08880012101604A
:1011E000FFF7AAFD054600BF306880073FF572AFE4
:1011F000FFF7A2FD401B0228F6D9032002B0BDE88C
:10120000F08100BFE168306A002900F09D80052967
:1012100000F09280012940F0AF8040F00100B1E081
:101220000020C4F242200021C0F88014FFF784FDA2
:10123000054600BF706A80077FF556AFFFF77CFD5B
:10124000401B0228F6D9032002B0BDE8F08100BFA0
:101250000027C4F2422700203866FFF76DFD022DFB
:1012600005460DD13068800140F1DE80FFF764FD56
:10127000401B02284FF00300F4D902B0BDE8F08112
:10128000306880014FD5FFF757FD401B02284FF013
:101290000300F5D9F1E700BF40F20800C2F20000F8
:1012A000006844F6D351C1F26201A0FB0101480A73
:1012B000019000BF00BF0198411E002801913FF43A
:1012C00013AF00BF0198411E002801913FF40CAFFD
:1012D00000BF0198411E002801913FF405AF00BFF7
:1012E0000198411E00280191E4D1FDE60021016032
:1012F000FFF722FD054600BF306880077FF5F1AE9D
:10130000FFF71AFD401B02284FF00300F4D9B4E7A1
:101310007068216A00F480328A4209D1616A00F45F
:101320007010884204D1002002B0BDE8F08100BFF7
:10133000012002B0BDE8F08140F004003062306A64
:1013400040F001001EE000BF20F001003062306A72
:1013500020F004003062FFF7EFFC054641F28837C9
:10136000306A800720D5FFF7E7FC401BB8424FF0FA
:101370000300F5D981E700BF20F001003062306A38
:1013800020F004003062FFF7D7FC054641F28837B1
:10139000306A800708D4FFF7CFFC401BB842F7D96A
:1013A000032002B0BDE8F081B8F1000F3FF59FAE19
:1013B000F06920F08050F06199E600BF40F4802091
:1013C0003060306840F480301CE000BF20F4803092
:1013D0003060306820F480203060FFF7ADFC0546B7
:1013E000306880037FF55EAEFFF7A6FC401B6428E3
:1013F0004FF00300F4D940E720F4803030603068CB
:1014000020F480203060FFF797FC054630688003A9
:101410003FF548AEFFF790FC401B6428F6D9032047
:1014200002B0BDE8F08100BF206AB0F5803F05D171
:101430007168A26821F40031114371607168626AB9
:1014400021F4741111430843706001203866FFF7DE
:1014500073FC0446306880013FF565AFFFF76CFC14
:10146000001B02284FF00300F4D906E7411E0020BC
:10147000B0EB116F1CBF012070474EF21002CEF28C
:10148000000251604EF62351CEF20001F0230B70A2
:101490000721906011607047FEE7000080B540F2C0
:1014A000BC0046F20041C2F20000C4F20001022278
:1014B000002380E80E0000F10C014FF4602C4FF483
:1014C000801E81E8085083618383FFF7A7F9002815
:1014D00008BF80BDBDE88040FEF7DCBE80B586B0A9
:1014E0000020CDE90400CDE9020041F21800C4F269
:1014F0000200016841F004010160006802A900F0E7
:10150000040001900198022002900120049040F60E
:101510000000C4F20100FFF707FB06B080BD000029
:10152000FEE70000FEE7000070470000B0B58AB09B
:1015300040230093002300F5C06001938DF8011053
:10154000090ACDE9040308208DF802108DF8032064
:10155000CDE9063308908DF82430FFF7EDFB40F21B
:10156000BC050446C2F200052846FFF713F838B957
:10157000FFF7E2FB001B0528F6D90AB0B0BD00BF9B
:1015800040F2BC00C2F2000004A96A4603ABFEF7B9
:101590009FFE0AB0B0BD0000B0B58AB00E9D00F548
:1015A000C060042D9ABF1FA4655D23258DF805102A
:1015B000090A8DF80610190A8DF80910190C8DF812
:1015C0000A10190E8DF80B100490002008218DF8D8
:1015D00004508DF807208DF80830CDE905000790FC
:1015E00008918DF82400FFF7A7FB40F2BC050446E4
:1015F000C2F200052846FEF7CDFF38B9FFF79CFB85
:10160000001B0528F6D90AB0B0BD00BF40F2BC00EF
:10161000C2F2000004A901AA03ABFEF759FE0AB00A
:10162000B0BD00BF002F2B27230000007047000033
:10163000FFF788BB7047000040F2BC00C2F2000018
:10164000FEF7BCBFFEE7000070B58AB040F2BC04F4
:10165000C2F2000401250026694620460895CDE91E
:101660000066CDE90266CDE90466CDE90665FEF7C0
:1016700081FE20460221FEF713FE2046FFF704FA02
:1016800040F27004C2F20004C4E90C66A663C4E927
:101690000466C4E90666C4E90866C4E90A662570FA
:1016A000FFF74AFB60600AB070BD000040F27000B6
:1016B000C2F2000000780338B0FA80F040097047A9
:1016C00040F27000C2F200000021C0E90411C0E93C
:1016D00006110162704700002DE9F0470021044621
:1016E00001F0B6F8002840F0F68020464FF07C511B
:1016F00001F0A0F8002818BFBDE8F08740F2700A9A
:10170000C2F2000A9AF80110DAF82800002900F065
:10171000DB80DAE90212DAF81850DAF82C30401AD5
:10172000DAF82810DAF82C709E1ACAE9021701F0CC
:10173000BBF94AF6FD51C3F6001101F049FA07461C
:10174000304601F0B1F94AF6FD51CBF6001101F037
:101750003FFA06463846314600F0F6FF4FF07C511E
:1017600001F036FA80463046394601F037FB43F245
:101770003331C3F6B36101F085F84FF07C518146F7
:1017800001F026FA0146284600F0DEFF054600F08B
:1017900059FEDAF810600146404601F019FA314668
:1017A00000F0D2FFCAF81000284600F009FF0146F9
:1017B000404601F00DFADAE9051500F0C5FFCAF858
:1017C00014004846294600F0BFFF40F6DB71C4F222
:1017D0004901074601F03CF868BB40F6DB7540F66E
:1017E000DB76CCF2C905C4F2490600BF384629466B
:1017F00000F0AAFF3146074601F02AF8D8B938466A
:10180000294600F0A1FF3146074601F021F890B9C2
:101810003846294600F098FF3146074601F018F88F
:1018200048B93846294600F08FFF3146074601F097
:1018300001F80028DAD140F6DB71CCF249013846D4
:10184000CAF8187000F0FDFF78BB40F6DB7540F673
:10185000DB76C4F2C905CCF2490600BF38462946FA
:1018600000F072FF3146074600F0EBFFD8B938466A
:10187000294600F069FF3146074600F0E2FF90B9C3
:101880003846294600F060FF3146074600F0D9FF90
:1018900048B93846294600F057FF3146074600F060
:1018A000DEFF0028DAD1CAF818704046214600F061
:1018B000E9FFCAF81C004846214600F0E3FFCAF8D9
:1018C0002000BDE8F08700BFDAF82C10CAE9020159
:1018D00001208AF80100BDE8F087000070B58AB0E9
:1018E0004E424FF62371C0F260110191010A8DF84A
:1018F00008008DF80910C10B000E8DF80B0040F2A6
:1019000001608DF80A10049000200821CDE905003F
:10191000079008918DF82400FFF70EFA40F2BC05FD
:101920000446C2F2000500BF2846FEF733FE28B980
:10193000FFF702FA001B0528F6D908E040F2BC00C8
:10194000C2F2000004A901AA03ABFEF7C1FC052006
:10195000FFF7D6F84FF62371C0F2602130B2019143
:10196000310A8DF80910C10B000E8DF80B0040F202
:1019700001608DF80A100490002008218DF808609D
:10198000CDE90500079008918DF82400FFF7D4F900
:1019900040F2BC050446C2F2000500BF2846FEF72F
:1019A000F9FD38B9FFF7C8F9001B0528F6D90AB0C8
:1019B00070BD00BF40F2BC00C2F2000004A901AA41
:1019C00003ABFEF785FC0AB070BD000070B58AB0AD
:1019D000FFF7B2F940F27006C2F20006317804292E
:1019E00000F21F83DFE801F0046C3E5E160000BFCA
:1019F00096F83810002900F01483716B40F6B73266
:101A0000411A914200F20D83002186F8381001211D
:101A1000317005E37168401AB0F57A7F40F20183B6
:101A20008020ADF80C0040F201200490002002213B
:101A3000CDE90500079008918DF82400FFF77CF9A7
:101A400040F2BC050446C2F2000500BF2846FEF77E
:101A5000A1FD002840F0D482FFF76EF9001B052895
:101A6000F4D9D6E20620ADF80C0040F20120049033
:101A700000200221CDE90500079008918DF824008F
:101A8000FFF75AF940F2BC050446C2F2000500BF58
:101A90002846FEF77FFDB8BBFFF74EF9001B05286F
:101AA000F6D93AE0318E002900F0BB8204460020CE
:101AB0000021FFF713FF0420307074600AB070BD7E
:101AC0002F20C0F214200190FE20029040F201600D
:101AD000049000200821CDE90500079008918DF8B9
:101AE0002400FFF729F940F2BC050446C2F20005C4
:101AF0002846FEF74FFD00286CD1FFF71DF9001BAB
:101B00000528F5D96FE000BF40F2BC00C2F200002A
:101B100004A903AA01ABFEF7DBFB0520FEF7F0FFEB
:101B200007208DF80C0040F20120049000200221D3
:101B3000CDE90500079008918DF82400FFF7FCF827
:101B400040F2BC050446C2F2000500BF2846FEF77D
:101B500021FD28B9FFF7F0F8001B0528F6D908E0A9
:101B600040F2BC00C2F2000004A903AA01ABFEF7D8
:101B7000AFFB0520FEF7C4FF0F208DF80C0040F2EC
:101B80000120049000200221CDE905000790089172
:101B90008DF82400FFF7D0F840F2BC050446C2F2ED
:101BA000000500BF2846FEF7F5FC28B9FFF7C4F88A
:101BB000001B0528F6D908E040F2BC00C2F2000084
:101BC00004A903AA01ABFEF783FB0A20FEF798FFE6
:101BD000032022E240F2BC00C2F2000004A901AAE4
:101BE00003ABFEF775FB0520FEF78AFF2320C0F24A
:101BF000161001901020C6F24000029040F20160E1
:101C0000049000200821CDE90500079008918DF887
:101C10002400FFF791F840F2BC050446C2F200052B
:101C20002846FEF7B7FC28B9FFF786F8001B052801
:101C3000F6D908E040F2BC00C2F2000004A901AAF3
:101C400003ABFEF745FB0520FEF75AFF2F20C0F23D
:101C5000160001900120029040F2016004900020E3
:101C60000821CDE90500079008918DF82400FFF7C1
:101C700063F840F2BC050446C2F200052846FEF7B0
:101C800089FC28B9FFF758F8001B0528F6D908E0A9
:101C900040F2BC00C2F2000004A901AA03ABFEF7A7
:101CA00017FB0520FEF72CFF40F22F10C0F2142086
:101CB0000190FE20029040F2016004900020082173
:101CC000CDE90500079008918DF82400FFF734F85E
:101CD00040F2BC050446C2F2000500BF2846FEF7EC
:101CE00059FC28B9FFF728F8001B0528F6D908E0A9
:101CF00040F2BC00C2F2000004A901AA03ABFEF747
:101D0000E7FA0520FEF7FCFE40F22310C0F21610A1
:101D1000019040F22030C6F2FF00029040F20160D4
:101D2000049000200821CDE90500079008918DF866
:101D30002400FFF701F840F2BC050446C2F200059A
:101D40002846FEF727FC28B9FEF7F6FF001B0528FA
:101D5000F6D908E040F2BC00C2F2000004A901AAD2
:101D600003ABFEF7B5FA0520FEF7CAFE40F22F10CE
:101D7000C0F2160001900120029040F20160049030
:101D800000200821CDE90500079008918DF8240076
:101D9000FEF7D2FF40F2BC050446C2F2000500BFC8
:101DA0002846FEF7F7FB28B9FEF7C6FF001B0528FB
:101DB000F6D908E040F2BC00C2F2000004A901AA72
:101DC00003ABFEF785FA0520FEF79AFE46F22F00D8
:101DD000C0F2600001900320029040F20160049084
:101DE00000200821CDE90500079008918DF8240016
:101DF000FEF7A2FF40F2BC050446C2F2000500BF98
:101E00002846FEF7C7FB28B9FEF796FF001B0528FA
:101E1000F6D908E040F2BC00C2F2000004A901AA11
:101E200003ABFEF755FA0520FEF76AFE48F22330B1
:101E3000C0F2601001906420029040F201600490B2
:101E400000200821CDE90500079008918DF82400B5
:101E5000FEF772FF40F2BC050446C2F2000500BF67
:101E60002846FEF797FB28B9FEF766FF001B0528FA
:101E7000F6D908E040F2BC00C2F2000004A901AAB1
:101E800003ABFEF725FA0520FEF73AFE48F22330B1
:101E9000C0F2602001906420029040F20160049042
:101EA00000200821CDE90500079008918DF8240055
:101EB000FEF742FF40F2BC050446C2F2000500BF37
:101EC0002846FEF767FB28B9FEF736FF001B0528FA
:101ED000F6D908E040F2BC00C2F2000004A901AA51
:101EE00003ABFEF7F5F90520FEF70AFE48F22340A2
:101EF000C0F2601001906420029040F201600490F2
:101F000000200821CDE90500079008918DF82400F4
:101F1000FEF712FF40F2BC050446C2F2000500BF06
:101F20002846FEF737FB28B9FEF706FF001B0528F9
:101F3000F6D908E040F2BC00C2F2000004A901AAF0
:101F400003ABFEF7C5F90520FEF7DAFD48F22340A2
:101F5000C0F2602001906420029040F20160049081
:101F600000200821CDE90500079008918DF8240094
:101F7000FEF7E2FE40F2BC050446C2F2000500BFD7
:101F80002846FEF707FB28B9FEF7D6FE001B0528FA
:101F9000F6D908E040F2BC00C2F2000004A901AA90
:101FA00003ABFEF795F90520FEF7AAFD40F20110FC
:101FB000ADF80C0000200221CDE90400CDE90600B7
:101FC00008918DF82400FEF7B7FE40F2BC050446E8
:101FD000C2F200052846FEF7DDFA28B9FEF7ACFE8E
:101FE000001B0528F6D908E040F2BC00C2F2000050
:101FF00004A903AA01ABFEF76BF932200AE000BF87
:1020000040F2BC00C2F2000004A903AA01ABFEF733
:102010005FF96420FEF774FD02203070FEF78CFE3D
:1020200070600AB070BD000000200021FFF756BCB0
:1020300090B0FEF795FE00240120CDE90B44CDE9D8
:1020400009440A9010200B904FF4E01002250F90E5
:1020500006A8CDE907440695CDE90D54FFF706F82B
:1020600020B1EFF3108072B6FEE700BF0F20CDE97C
:1020700001054FF48060CDE9040401A80121039417
:10208000FEF716FF20B1EFF3108072B6FEE700BF37
:10209000FFF724FAFFF702FAFFF7D6FAFFF710FB73
:1020A0004DF20A7B40F2AC0740F2940AC3F6A34B10
:1020B000C2F20007C2F2000A07E000BFFEF73CFED2
:1020C000786000BF1420FEF71BFDFFF77FFC0120A6
:1020D00046F264010122FFF729FA0520FEF710FD00
:1020E000012046F264010222FFF720FA0520FEF7E4
:1020F00007FD5846FFF7F0FAFFF7D8FA0028E1D0BD
:10210000787818B1D7E9024608E000BFDAF8044051
:10211000DAF808600120C7E90246787040F28000D2
:10212000C2F20000C5680021284600F098FB002894
:10213000DAF8040018BF85F00045201ADAF8081014
:10214000814648BFC0F10009761AB04648BFC6F1C3
:102150000008397802295FD0012929D00029B1D19E
:1021600040F20C00C2F200000078012811D10120D9
:1021700046F240010022062302260096FFF70CFAE1
:102180000520FEF7BDFC40F20C010020C2F2000168
:1021900008702846594600F054FB00288ED1B9F546
:1021A0007A7F98BFB8F57A7F8CD90120387085E79F
:1021B0002846594600F04CFB00286DD0FEF7BCFDC8
:1021C0007968401AB0F57A7F7FF67CAF40F20C0058
:1021D000C2F200000078E0B9012046F2400100227E
:1021E000072302240094FFF7D7F90A20FEF788FCA2
:1021F000012046F2400100220F230094FFF7CCF9A2
:102200000A20FEF77DFC40F20C010120C2F2000121
:102210000870022041E000BFB9F1630F98BFB8F128
:10222000630F37D900F040FC594600F0D1FC00F0B4
:102230001FFC0546304600F037FC594600F0C8FC4C
:1022400000F016FC322D06464FF03200A8BF0546BE
:1022500015F1320F6FF03101D8BF0D46322EA8BFF5
:10226000064616F1320FD8BF0E46012046F2FF0196
:1022700001222B4604240094FFF78EF90520FEF777
:102280003FFC012046F2FF01022233460094FFF793
:1022900083F917E7FFF7C8FE0020387012E7410006
:1022A000080218BF04200A0E18BF40F001004FF0CA
:1022B0007F4232EA010108BF40F00200012808BF56
:1022C00005207047012100F030BE0021084600F0D3
:1022D000D9BA6FF05E01080700F027BE2DE9F04D76
:1022E0000D4614464FF07F41B1EB440F9EBF4FF0B7
:1022F000FF312960BDE8F08D4FF0004040EA042135
:10230000C4F3C750783810F01F024A4B4FEA601CE4
:10231000C2F120067B44C4F3C750A0F178004FEA15
:10232000601003EB800053F82C3008BFD0E901C6E1
:1023300012D0D0F804C093402CFA06F73B438768CC
:102340000CFA02FC27FA06F8C06807FA02F2F0401D
:102350004CEA080C42EA0006A3FB0132ACFB01C0C8
:10236000A6FB016101EB0C068E4234BF4FF0010C5D
:102370004FF0000CC1186144BCF1000F02D0814243
:1023800002D903E0814201D2012000E00020104484
:1023900000F120024FEA92188006CA0C40EA42304F
:1023A0004F03C5F8008000F07FFB8246384600F0FE
:1023B00093FB6FF0120100F0B8FD0746304600F0C5
:1023C0008BFB6FF0250100F0B0FD83463946504687
:1023D00000F0BAF9594600F0B7F900F500666FF35E
:1023E0000B065146304600F0F9FC394600F0F6FC89
:1023F000594600F0E9FC104900F0EAFB07460F4996
:10240000304600F0E5FB394600F09EF907460C49DE
:10241000304600F0DDFB394600F096F914F0004F2D
:1024200008BFBDE8F08DC8F1805180F00040296000
:10243000BDE8F08D900C0000DB0FC92F22AAFD290A
:102440000000C92F2DE9F843044602464F4869466B
:10245000B0EB420F09D94FF0E640B0EB420F94BF0A
:1024600000204FF0FF30009030E0494B22F0004058
:10247000834271D94749204600F0AAFB00F074FC62
:10248000804600F0F5FA00F0030000904249404613
:1024900000F09EFB05464149404600F099FB064688
:1024A0003F49404600F094FB07463E49404600F055
:1024B0008FFB214600F088FC394600F08FFC314646
:1024C00000F08CFC294600F089FC04462546009C5F
:1024D000002C45DB294614F0010F08461CD000F003
:1024E00077FB0646304900F073FB304900F02CF9C9
:1024F000314600F06DFB2E4900F026F9314600F020
:1025000067FB294600F064FB294600F01DF914F032
:10251000020F1CD0BDE8F88300F05AFB05462549A0
:1025200000F056FB244900F00FF9294600F050FB5B
:10253000224900F009F9294600F04AFB4FF07E518C
:1025400000F002F914F0020F08BFBDE8F88380F034
:102550000040BDE8F883FFE71046FFF7BFFEB4E791
:102560006800B0F17F4F3CBF4FF07E50BDE8F8836C
:1025700007D14FF00100FDF745FEBDE8F843FFF736
:10258000A4BE2846BDE8F843FFF79CBEB61F927E66
:10259000490E494683F9223F1A61342C0020A233A8
:1025A00000A0FD390000C93F336D4CB9DA82083C08
:1025B000A0AA2ABEB93AB2BACA9F2A3DDDFFFFBE21
:1025C0002DE9F8430446024652486946B0EB420FF3
:1025D00009D94FF0E640B0EB420F94BF00204FF016
:1025E000FF30009030E04C4B22F00040834271D924
:1025F0004A49204600F0ECFA00F0B6FB804600F0B5
:1026000037FA00F0030000904549404600F0E0FA38
:1026100005464449404600F0DBFA0646424940463A
:1026200000F0D6FA07464149404600F0D1FA21466B
:1026300000F0CAFB394600F0D1FB314600F0CEFB7A
:10264000294600F0CBFB04462546009C002C45DBC8
:10265000294614F0010F08461ED000F0B9FA0546CD
:10266000334900F0B5FA334900F06EF8294600F01E
:10267000AFFA314900F068F8294600F0A9FA4FF0A6
:102680007E5100F061F814F0020F08BFBDE8F88336
:1026900080F00040BDE8F88300F09AFA064627492A
:1026A00000F096FA264900F04FF8314600F090FA13
:1026B000244900F049F8314600F08AFA294600F032
:1026C00087FA294600F040F814F0020FE0D1BDE887
:1026D000F883FFE71046FFF701FEB4E76800B0F1AA
:1026E0007F4F09D22846FFF7DAFD042808BFFFF71D
:1026F000F0FD2846BDE8F88306D10120FDF782FDF4
:10270000BDE8F843FFF7E1BD2846BDE8F843FFF711
:10271000D9BD0000B61F927E490E494683F9223F7B
:102720001A61342C0020A23300A0FD390000C93FFB
:10273000B93AB2BACA9F2A3DDDFFFFBE336D4CB92C
:10274000DA82083CA0AA2ABE90EA010F48BF81F0B5
:10275000004100F14A83421A3CBF801A89184FEAAF
:10276000D052A2EBD1534FF07F4C1CEA410F18BF5F
:102770009CEA026F00F03B804FF0004C4CEA0020D6
:102780004CEA012121FA03FC10EB0C0C1ED202F1E1
:10279000FF325FEA1C2040EBC25038BF70471CF08C
:1027A0007F0F4FEA400C18BFBCF17F4F38BF704716
:1027B000C3F12003994008BF20F00100BCF17F4F16
:1027C00038BF7047A0F1C04000F0C9BA4FEA3C00E2
:1027D000000A40EBC25028BF1CF0FF0F4FEA400C2C
:1027E000E6D018BFBCF17F4F38BF7047EAE79CEADC
:1027F000026F05D010EA5C0F08BF00F00040704780
:1028000010B500F066FA00BF64FBBE3E014800F060
:102810005ABB00BF0000C07F10B500F0F5F80CBF38
:102820000120002010BD10B500F0EEF814BF01200B
:10283000002010BD10B500F063F98CBF012000200E
:1028400010BD10B500F05CF92CBF0120002010BDB8
:1028500010B500F089F994BF0120002010BD10B51B
:1028600000F082F934BF0120002010BD401058BF95
:10287000C0F14040491058BFC1F140418142EFF3DF
:10288000008070474FF47F0C1CEAD0121EBF1CEA78
:10289000D11392EA0C0F93EA0C0F00F0858090EAB6
:1028A000010F48BF42F4807240F4000C41F4000074
:1028B0002CF07F4120F07F4000B5A2EB0302814263
:1028C0000FF2081CACEB504E9EF800E0C0F1000087
:1028D0004FEA4E0E00FB0EFC38BF49004FEA2C1C9D
:1028E0000CFB0EF34FEACE1E0EEB635E4FEA112C8B
:1028F0000EFB0CFC4FEAC1214FEA1C5300FB0311F5
:1029000002F5FA024FEA112C0EFB0CFC4FEA0131E2
:102910004FEADC4C00FB0C1142EB2242C14228BFC3
:1029200009184CEB03335DF804EB10EB410143EB6A
:10293000C250B2F57C0F38BF704729D512F0F00FA6
:102940001CBF00F1C04000F000407047008182834E
:102950008485868788898B8C8D8E8F9192939596AE
:1029600097999A9C9D9FA0A2A3A5A7A8AAACAEB038
:10297000B2B3B5B7B9BCBEC0C2C5C7C9CCCED1D43D
:10298000D7D9DCDFE2E6E9ECF0F3F7FAFE0000006D
:102990004FEA400C0CF1807CBCF17E4F28BF7047A1
:1029A000B0F1C04000F0DBB90CEAD11390EA010F9E
:1029B00048BF42F48072624538BF634507D213F4C2
:1029C0007F0F16D080EA010000F00040704710B57C
:1029D00000F07FF9097EFC3E00F005B880EA0100B6
:1029E00000F00040704780EA010000F0004000F075
:1029F000B6B912F47F0F04BF0248704780EA0100A5
:102A000000F0ADB90000C07F50EA010C00F1138066
:102A10001CF5000F58BFBCF5000F01D48842704769
:102A200007D710F5000F58BF11F5000F15D48842D5
:102A30007047894270471CF5000F04D5BCF5000FA4
:102A4000F7D5814270474FF0807C1CEB400F38BFB8
:102A50001CEB410F01D28142704710B500F039F9EB
:102A6000922449004FF000504FF08051FFF7FEBE16
:102A700041000B0ED3F19E0208D950F400034FEA37
:102A8000032323FA02F048BF4042704710B500F01C
:102A900020F900BF49922480002070476FF0004267
:102AA00082EA20007047000010F0004148BF404219
:102AB000B0FA80F310FA03F2C3F19D030BD051EA90
:102AC000C35101EB1220530638BF704700F10100DB
:102AD00008BF20F001007047B0FA80F310FA03F24B
:102AE000C3F19D030AD0D90501EB1220530638BF6C
:102AF000704700F1010008BF20F00100704700009E
:102B000050EA010C00F113801CF5000F58BFBCF512
:102B1000000F01D48842704707D710F5000F58BF47
:102B200011F5000F15D488427047894270471CF593
:102B3000000F04D5BCF5000FF7D5814270474FF068
:102B4000807C1CEB400F38BF1CEB410F01D281424F
:102B5000704710B500F0BDF8922449004FF0805046
:102B60004FF00051FFF782BE50EA010C00F11380D4
:102B70001CF5000F58BFBCF5000F01D48842704708
:102B800007D710F5000F58BF11F5000F15D4884274
:102B90007047894270471CF5000F04D5BCF5000F43
:102BA000F7D5814270474FF0807C1CEB400F38BF57
:102BB0001CEB410F01D28142704710B500F089F83B
:102BC000922449004FF000504FF08051FFF74EBE65
:102BD0004FF47F0C1CEAD0121EBF1CEAD11392EAFC
:102BE0000C0F93EA0C0F00F0478090EA010F48BFEA
:102BF00042F480724FF0004C4CEA00204CEA012174
:102C000002EB0302A0FB0113A2F50002002918BF8A
:102C100043F001035B0028BF4FEA330342EB22423B
:102C20005FEA132C4CEBC2502EBFBCEB436FB2F5E6
:102C30007C0F70474FEA036CBCF1004F08BF20F0D7
:102C40000100B2F57C0F38BF70470BD582F0FF0250
:102C500012F5803FC8BF704700F1C040D8BF00F0F8
:102C60000040704700F5000C5FEA4C0C48BF70470D
:102C7000B0F1C04000F073B80CEAD11390EA010F34
:102C800048BF42F48072624538BF634504D280EA8F
:102C9000010000F00040704710B500F01AF800BFC6
:102CA0008900013E00F007B800F009B85FEA410C66
:102CB0005FEA1C6C08D080EA010000F050B85FEABF
:102CC000400C5FEA1C6CF6D14FF00040A0F580008C
:102CD00070470EF1020E2EF0030E5EF8044B2442F4
:102CE00004D44FEA4102B2F17F4F11D84FEA4003BA
:102CF000B3F17F4F0CD80ED14FEAD07C0CEB4C0CCB
:102D00000CF1020CB2F17F4F08BF4CEBD17C04E018
:102D10004FF0080C01E04FEAD17C0CEB4C0324FA95
:102D200003F404F00704B4F1040C06D20EEB840C97
:102D3000BDE810404CF0010C6047DFE80CF00708DC
:102D400002024FF00040A0F5800010BD084642008E
:102D500018BFD2F1807288BF00F0004010BDFF2183
:102D600041EAD050C00570475FEA400C5FEA1C6C36
:102D7000BCF17F0314D4D3F1170240F31C804FF051
:102D8000010C0CFA02FCACF10103034020EA030041
:102D9000B3EB5C0208BF10EA0C0F88BF60447047B9
:102DA000B3F1FF3F28BF5FEA002C00F0004088BF6E
:102DB00040F07E507047BCF1FF0FB8BF704710B5B0
:102DC000FFF787FF40DBB6BE80F0004090EA010FBE
:102DD0007FF5C1AC81F0004100F007B890EA010F27
:102DE00048BF81F000413FF5B6AC421A04D882F0EA
:102DF0000042A0EB020011444FEAD052A2EBD153A3
:102E00004FF07F4C1CEA410F18BF9CEA026F4AD07A
:102E10004FF0004C4CEA00204CEA012121FA03FC5F
:102E2000B0EB0C0C0FD412F0FE0F36D05FEA4C0062
:102E30001DD5001240EBC25038BF70471CF03F0F49
:102E400018BF70470BE05FEA1C20A2F1010240EBC3
:102E5000C25038BF70471CF07F0F18BF7047C3F1D6
:102E60002003994014BF401E20F0010070474FEA34
:102E70001223800808BF7047B0FA80FCA2EB0C0256
:102E8000CCF1280C60FA0CF093EA122F04BF00EB8F
:102E9000C25070474FEAC3707047130A5FEADC10F4
:102EA00008BF7047F6E79CEA026F04D010EA5C0F97
:102EB00008BF0020704710B5FFF70BFF40DFF63E5C
:102EC00081F0004070470CF00F03092B08BF082069
:102ED00000F051800A2B0BD0082B18BF704708BF99
:102EE0001CF0400F0AD04FF000004FF00001704777
:102EF0001CF0400F18BF4FF0004070471CF0100F3F
:102F000008D000F07F4220F0704342EAD3014FEA3C
:102F10004370704700F0604021F07F4242EA0002B7
:102F200001F07F4040EA727070474FF0FF0212EAF2
:102F3000D0521CBF92F0FF038B42C2BFD14200EBC4
:102F4000C1507047002A0AD0002B0BD000F000407F
:102F50000029A4BF40F0FE4040F40000704700F09C
:102F60000040704743024FF00B0C18BF4CF0806CD0
:102F70007FF44CAC70471CF4801F11D01CF4E02F80
:102F800003D06FEACC31490070474FF04050EFF367
:102F9000008222F0704242EA000282F30088704709
:102FA0004FF0000070470000000000006E83F9A29F
:102FB0002915444ED15727FCC0DD34F5999562DBC5
:102FC0004190433CAB6351FE000000000000000054
:102FD00001020304060708090102020304050607AB
:102FE00008090A0B0C0D0E0F10100000103000081D
:102FF00000000020100000005001000820300008F0
:1030000010000020D8060000700100080000000039
:10301000010000001000000000127A000100000012
:04000005080000ED02
:00000001FF
