:020000040800F2
:1000000078080020B5010008C92200081D21000859
:10001000C522000871020008092400080000000041
:10002000000000000000000000000000F1230008B4
:100030008D02000800000000CD220008F523000812
:10004000CF010008CF010008CF010008CF01000850
:10005000CF010008CF010008CF010008CF01000840
:10006000CF010008CF010008CF010008CF01000830
:100070007502000881020008CF010008CF010008C6
:10008000CF010008CF010008CF010008CF01000810
:10009000FD230008CF010008CF010008CF010008B0
:1000A000CF010008CF010008CF010008CF010008F0
:1000B000CF010008CF010008CF010008CF010008E0
:1000C000CF010008CF010008CF010008CF010008D0
:1000D000CF010008CF010008CF010008CF010008C0
:1000E000CF010008CF010008CF01000800F002F89E
:1000F00000F050F814A696E8000CB244B344DA4578
:1001000001D100F047F8BAE80F000FA696E83000DA
:10011000A5EB040504EB0607AAEB0704A7F101070A
:100120004FEA15154FEA3414A4F10104AC4201D38F
:1001300000F030F813F0010F18BFFB1A43F0010371
:1001400000F001F8DBE718477C4E00009C4E0000F1
:10015000103A24BF78C878C1FAD8520724BF30C8F3
:1001600030C144BF04680C60704700007047000055
:100170000023002400250026103A28BF78C1FBD8B0
:10018000520728BF30C148BF0B6070471FB51FBD65
:1001900010B510BD00F036F81146FFF7F7FF03F079
:1001A0002BFB00F054F803B4FFF7F2FF03BC00F0A0
:1001B00057F800000948804709480047FEE7FEE776
:1001C000FEE7FEE7FEE7FEE7FEE7FEE7FEE7FEE707
:1001D00004480549054A064B70470000F92300080A
:1001E000ED00000878020020780800207804002044
:1001F000780400207047704770470000004870473F
:10020000480000207546FFF7F9FFAE460500694635
:10021000534620F00700854618B020B5FFF7D8FFF9
:10022000BDE820404FF000064FF000074FF00008F7
:100230004FF0000BAC46ACE8C009ACE8C009ACE834
:10024000C009ACE8C00921F007018D46704710B520
:100250000446AFF300802046BDE81040FFF7A3BF7F
:1002600001491820ABBEFEE72600020070470000DF
:10027000FEE7000040F23C10C2F2000000F03EBC7D
:1002800040F28010C2F2000000F038BC704700005D
:10029000EFF3108072B600BFFEE7000090F8202058
:1002A000013A012A08D8006800F1140200201368FE
:1002B00019431160704700BF00F1240201204FF480
:1002C00080211368194311607047000010B590F841
:1002D00020E0D0F800C0AEF1010EBEF1010FDCF855
:1002E00008E011D81EF0E05F18D0CEF301640120C1
:1002F000A04018608B68DBB1D1F804E0C86840EA20
:10030000CE0040EA030E17E000F1240301204FF471
:1003100080211A681143196010BD00BF00F1240349
:1003200001204FF400111A681143196010BD00BF7D
:100330000868CB6843EA405E0CF5C07000EB04131C
:10034000240140F804E00C69184640F8044F097D88
:10035000012903D1016841F48071016050680121D5
:10036000D8601068986000201A681143196010BDA9
:10037000026890F82030013B012B29D8B0B5D2F8A3
:100380000002012340F00100C2F80002D1F814E09D
:10039000CC690EF01F0003FA00F0D2F81C326FEAAD
:1003A000000C8343012CC2F81C3217D06CBBD2F86E
:1003B0000C3203EA0C03C2F80C32CB688C8844EA96
:1003C000034302EBCE04C4F840320B4615E000BFF5
:1003D000416A41F48021416201207047D2F80C3219
:1003E0000343C2F80C320B688C8844EA034302EBE7
:1003F000CE04C4F8403201F10C038D681B8802EB77
:10040000CE0443EA0543C4F84432D2F804328C697E
:1004100043EA0005D1F810E0096A002C08BF03EA9E
:100420000C05C2F80452D2F81432BEF1000F43EAB0
:10043000000408BF03EA0C040129C2F8144204D1E5
:10044000D2F81C120843C2F81C02D2F8000220F0B5
:100450000100C2F800020020B0BD0000704700009B
:10046000B0B590F82040013C012C7DD8D0F800C0F8
:1004700000290CBFDCF80C40DCF81040A4077DD04C
:100480000CF5D8754FEA011C55F80C4014F0040423
:10049000946055F80CE005EB011C19BF4FEADE052E
:1004A00055604FEA5E551560DCF80050E64605F0F1
:1004B0000205D5605EF8044F24075ABFDEF80040FD
:1004C00004F00F0408241461DEF800400029C4F38E
:1004D00007249461DEF800504FEA15455561DCF8B9
:1004E00008201A70026802EB0112D2F8B8214FEA14
:1004F00012225A70026802EB0112D2F8B8214FEAB8
:1005000012429A70026802EB0112D2F8B8214FEA47
:100510001262DA70026802EB0112D2F8BC211A7181
:10052000026802EB0112D2F8BC214FEA12225A7182
:10053000026802EB0112D2F8BC214FEA12429A7112
:10054000026802EB0112D2F8BC214FEA1262DA71A2
:1005500000680CBF00F10C0100F110010020202206
:100560000B681A430A60B0BD00F1240101204FF46A
:1005700080220B681A430A60B0BD00BF00F124015D
:1005800001204FF400120B681A430A60B0BD00004E
:1005900090F820100139012984BF002070470068BD
:1005A000816882688068C1F38061C2F3C0621144CF
:1005B000C0F30070084470472DE9F04F81B0044645
:1005C00000684669D0F804908768D0F80CB0D0F87D
:1005D00010A0D0F81880F10704D1002530071DD4F1
:1005E00024E000BFF90710D00121BA07816009D4C7
:1005F000780700F1AF80380700F1B680204600F0A0
:100600006FFA02E0204600F06DFA0025F80500F1CF
:100610008780F80300F1B180300707D51BF0100088
:1006200004D0206845F400751021C160700708D51A
:100630001BF0080005D020680821C160204600F0AA
:10064000ADF9B00706D52068C068800702D0204603
:1006500000F0A6F9700607D51AF0100004D0206843
:1006600045F4806510210161B00608D51AF0080034
:1006700005D0206808210161204600F0FDF9F00650
:1006800006D520680069800702D0204600F0F6F900
:10069000B00308D519F0100005D020681021416082
:1006A000204600F0EDF9F00308D519F0080005D058
:1006B000206808214160204600F01EFA300440F115
:1006C0009B805FEA497040F1948006F4807008EAEC
:1006D000102028435FEA8871014648BF41F00201BB
:1006E000B20558BF01465FEA48700D4648BF45F065
:1006F0000405700558BF0D46300540F17A8018F0AA
:10070000700000F076801038000905286CD8DFE80A
:1007100000F003655D61596945F0080564E000BFBC
:1007200020684FF48071BA0581600BD4780515D428
:1007300038051DD4204600F0D7F9F8037FF56CAFDB
:100740001BE000BF204600F0D1F9F8037FF564AF4D
:1007500013E000BF4FF4006558E700BF05F50055F2
:10076000F8037FF559AF08E04FF480554EE700BF1E
:1007700005F58045F8037FF54FAF20684FF48031D1
:10078000BA0381600AD4780310D4380314D4204605
:1007900000F0AEF930073FF541AF47E7204600F0E3
:1007A000A9F930073FF53AAF40E700BF05F500452E
:1007B00030073FF533AF39E705F5803530073FF5B2
:1007C0002DAF33E745F080050EE000BF45F0200572
:1007D0000AE000BF45F0400506E000BF45F0100507
:1007E00002E000BF45F480752068816921F0700146
:1007F000816120680421416055B1606A40EA0501C9
:100800002046616201B0BDE8F04FFFF727BE00BF90
:1008100001B0BDE8F08F0000002804BF0120704740
:10082000B0B5044690F8200010B9204600F06EF8EC
:100830002068016841F00101016000F093FB05466A
:1008400020684168C90705D100F08CFB401B0B28CC
:10085000F6D310E0016821F00201016000F082FB94
:10086000054600BF2068416889070DD500F07AFB76
:10087000401B0B28F6D3606A052140F4003060620B
:10088000012084F82010B0BD217E0268012922F0E9
:10089000800208BF80320260617E0268012922F076
:1008A000400208BF40320260A17E0268012922F0A6
:1008B000200208BF20320260E17E0268012922F096
:1008C000100218BF10320260217F0268012922F055
:1008D000080208BF08320260617F0268012922F025
:1008E000040208BF04320260D4E901C2D4E903352E
:1008F00061691A432A431143ACF101021143C161FA
:1009000000200121606284F82010B0BDB0B586B02F
:1009100040F60004C4F201040068A4F5244200215A
:1009200090420591CDE90311029101D006B0B0BD0E
:1009300041F21800C4F20200426802AD42F00072B7
:100940004260426802F000720192019A026842F02D
:1009500004020260006800F00400019001984FF466
:100960000060CDE9020104912046294600F0ECF92F
:100970004FF48050029002200390032005902046FF
:10098000294600F0E1F914200021002200F052FC79
:10099000142000F03DFC06B0B0BD00007047000020
:1009A00010B58AB0002103AA6B46CDE90011FFF70C
:1009B00057FD08B10AB010BD0398A0F281114FEAAB
:1009C0003121032926D8DFE801F00503111B00BF00
:1009D000F0E700BFBDF8000040F2A801C2F200013C
:1009E0008884BDF80400C8840AB010BD40F2A80095
:1009F000DDE90012C2F200008162C2620AB010BDDD
:100A0000BDF8000040F2A801C2F2000108860AB059
:100A100010BD00BF00F4F061B1F5E06F0CD140F201
:100A2000A804C2F20004012084F8380000F09AFA09
:100A300060630AB010BD00BF40F281518842B9D155
:100A4000BDF8010046F264018842B3D19DF803105D
:100A50000198022908D00129ACD140F2A801C2F2C4
:100A6000000188620AB010BD40F2A801C2F2000184
:100A7000C8620AB010BD0000704700007047000057
:100A800070470000B0B5044690F8200001281DD141
:100A9000022084F820002068016821F00101016033
:100AA00000F060FA054600BF20684068C00713D018
:100AB00000F058FA401B0B28F6D3606A40F400306F
:100AC0006062052084F820000120B0BD606A40F417
:100AD000002060620120B0BD00206062B0BD000057
:100AE000704700007047000070470000704700002A
:100AF00070470000704700007047000010B5D0E953
:100B00000FCE0168DCF800300A6823FA0EF35C07A8
:100B10002AD512F0040427D00A68920603D40A6882
:100B200022F004020A602F22C4F20202914240F233
:100B30000402C4F202025BDD3023C4F202039942D4
:100B400072D04423C4F20203994273D05823C4F2F2
:100B50000203994240F07A804FF480231360C16A07
:100B6000002940F098806FE09C0727D512F002041E
:100B700024D00A68920606D40A6822F00A020A60A3
:100B8000012280F821202F22C4F20202914240F279
:100B90000402C4F202023BDD3023C4F20203994294
:100BA00060D04423C4F2020399425FD05823C4F2B8
:100BB0000203994260D14FF4003365E01B0743D52F
:100BC00012F0080208BF10BD0A6822F00E020A6087
:100BD000012101FA0EF2CCF80420816380F8211083
:100BE000016B0022002980F8202054D12CE000BFA6
:100BF0000823C4F20203994222D01C23C4F2020348
:100C0000994223D140231360C16A002943D11BE0DC
:100C10000823C4F2020399422CD01C23C4F202031D
:100C2000994229D120232FE04FF480631360C16AD9
:100C300089BB09E04FF480431360C16A59BB03E0EC
:100C400004231360C16A31BB10BD00BF02F1680408
:100C50004FF08063A14208BF4FF480031360C16A64
:100C6000C9B9F1E74FF400730EE000BF4FF4005331
:100C70000AE000BF022307E002F168044FF00073AE
:100C8000A14208BF4FF400131360816A00220029BB
:100C900080F82020D8D0BDE8104008470146002841
:100CA0004FF0010008BF70472DE9F043D1F800C0B4
:100CB0004FF6F873CBF6FD734CF6CD426344CCF699
:100CC000CC42A3FB02236FF0030202EA930200234B
:100CD000C4F2020301F10C08C1E90F320222D1E98A
:100CE000019E98E8F00181F82120DCF8002043F60D
:100CF000F0739A4342EA090242EA0E0222432A436F
:100D000032433A4342EA0802CCF8002000228A63C8
:100D100081F8210081F820200020BDE8F0437047D1
:100D2000B0B5044600F01EF9054640F20800C2F2D4
:100D300000000078611C18BF044400BF00F012F9E5
:100D4000401BA042FAD3B0BD2DE9F04F82B00E682F
:100D5000002E00F0FD8041F20042C4F201020423A3
:100D600040F2004E904208BF03234FF6FF7CC4F2CE
:100D7000010E009300240123C1F2100C4FF0000A71
:100D80004FF000094BE000BF41F20002C4F2010243
:100D9000009F904208BF022704F00C030F229A40E4
:100DA0002BEA020207FA03F34FEA9A051A4346F8C0
:100DB00025204E6840F20C45F202DEF8082054BFB0
:100DC00022EA080242EA0802C4F20105CEF808202D
:100DD0002A68B30254BF22EA080242EA08022A60E3
:100DE000B303DEF8042054BF22EA080242EA0802F4
:100DF000F303CEF80420DEF800204FF0010354BFC7
:100E000022EA080242EA0802CEF800200E680AF13F
:100E1000010A36FA0AF204F1040400F0998003FA98
:100E20000AFB16EA0B08F1D04E68664512DC122E5A
:100E300056D8DFE806F0350B4D49555555555555F3
:100E40005555555555555545510000BFD1F80C9095
:100E500046E000BF4FF6FF72C1F2210296420FDC5E
:100E60000022C1F2110296421AD00022C1F21202EF
:100E7000964215D00022C1F22102964210D02FE0F6
:100E80000022C1F2220296420AD00022C1F23102AF
:100E9000964205D00022C1F23202964220D100BF14
:100EA0008A684AB1012A14BFC0F814B0C0F810B063
:100EB0004FF0080914E000BF4FF0040910E000BF34
:100EC000CA6802F104090BE04FF0000908E000BF16
:100ED000CA6802F1080903E0CA6802F10C0900BF00
:100EE00002462646B8F5807F24BF0432203E1768AC
:100EF0000F25B54027EA050509FA06F635431560C2
:100F0000CA79D2067FF582AF41F21803C4F2020318
:100F10001A68AEF57E7642F001021A601A6802F095
:100F200001020192019A2AF0030256F802B040F63B
:100F30000002C4F20102904208D040F60042C4F21E
:100F4000010290427FF420AF012725E7002723E725
:100F500002B0BDE8F08F0000002A08BF090401615B
:100F60007047000040F27020C2F200000068704735
:100F7000002804BF01207047F0B581B0044690F806
:100F80003D0028B9002084F83C00204600F0A2F87B
:100F9000242084F83D002068016821F001010160EF
:100FA000016841F400410160016821F400410160E1
:100FB00000F05AFA636848F2A16CC0F2010C40F6E6
:100FC0000011C0F23D0163453CBF48F28041C0F2D0
:100FD0001E01884202D2012001B0F0BD4DF68361AE
:100FE000C4F21B31A0FB01122168970CD1F804E078
:100FF0004FF496762EF03F0545EA92454D607743D3
:1010000048F638160D6AC0F24106A7FB067625F0B1
:101010003F07634538BF960C721C3A430A62CA699F
:1010200048F2A0664CF6FF77C0F20106B34222EA0E
:1010300007020BD801385B00B0FBF3F001306FF30F
:101040001F30042898BF04201BE000BFA7680138A8
:1010500057B119277B43B0FBF3F001306FF31F301A
:1010600070B100F5804007E003EB4303B0FBF3F001
:1010700001306FF31F3018B100F5004001E000BFF0
:1010800001201043C8610868D4E9072320F0C0009C
:10109000104318430860886848F2FF3204F10C07D7
:1010A00090438CCF18431043A6698860C86820F02D
:1010B000FF0038433043C860086840F00100086012
:1010C00000202021206484F83D10206384F83E0035
:1010D00001B0F0BD10B586B0016845F20040C4F221
:1010E000000081424FF00001CDE90411CDE9021169
:1010F00002D006B010BD00BF41F21804C4F20204D1
:10110000216800F5384041F008012160216801F0B4
:10111000080101910199C02102911221039103213B
:10112000059102A9FFF710FE606840F400106060AE
:10113000606800F400100190019806B010BD000036
:1011400040F2080040F27021C2F20000C2F2000139
:1011500000780A68104408607047000080B542F2C9
:101160000000C4F20200016841F010010160032098
:1011700000F08CF80F2000F005F800F027F80020B0
:1011800080BD000070B540F20806C2F2000640F2D1
:1011900010013278C2F200014FF47A730968B3FB90
:1011A000F2F20446B1FBF2F1084600F0A1FF0F2C69
:1011B0004FF0010508D838B94FF0FF302146002222
:1011C000002500F037F87460284670BD82B041F207
:1011D0001800C4F202000168022241F0010101601E
:1011E000016801F0010101910199416841F08051CC
:1011F0004160406800F08050009000980420C4F2E4
:101200000100016862F31A61016002B070470000DA
:10121000002848BF704700F01F01012202FA01F1C7
:101220001C2202EAD0004EF20012CEF200028150DF
:101230007047000010B54EF60C5CCEF2000CDCF8E6
:101240000030C3F3022E8EF00704042C28BF0424C0
:10125000BEF103034FF0FF3E0EFA04F438BF002343
:10126000A14399400EFA03F39A43114300F00F0291
:1012700000F160430901043A03F564436244002825
:1012800048BF02F10C03197010BD00004EF60C515E
:10129000CEF200010A684FF6FF031A4060F30A22FB
:1012A00042F0806040F0FD7008607047002804BF85
:1012B000012070472DE9F04381B042F20008C4F2EA
:1012C00002080446D8F800000D4600F007008842E6
:1012D0000CD2D8F8000020F007002843C8F800001E
:1012E000D8F8000000F00700A8426CD1206841F255
:1012F00004098107C4F2020917D5410705D5D9F8B9
:10130000001041F4E061C9F80010010705D5D9F8D3
:10131000001041F46051C9F80010D9F80010A2681B
:1013200021F0F0011143C9F80010C00742D1D8F8EC
:10133000000000F00700A8420CD9D8F8000020F007
:1013400007002843C8F80000D8F8000000F00700A4
:10135000A84238D12068410707D5D9F80010E268C3
:1013600021F4E0611143C9F80010000708D5D9F84D
:101370000000216920F4605040EAC100C9F8000073
:10138000D9F8002002F00C00082841F20020C0F239
:101390007A004DD144F6B173C2F38341C0F6000325
:1013A000595CD20338D440F60010C0F23D004843E7
:1013B0003EE000BF606859F8041C022808D00128EC
:1013C00026D1890306D4012001B0BDE8F08300BF17
:1013D0008901F8D5D9F8001021F003010843C9F8B4
:1013E0000000FFF7BFFD064641F28837D9F800003C
:1013F000616800F00C00B0EB810F98D0FFF7B2FDF0
:10140000801BB842F2D9032001B0BDE8F08300BFD1
:101410008907D8D5DEE700BFD9F8002044F6AF73BE
:10142000C2F34042C0F600039A5C4843B0FBF2F0BE
:10143000D9F8001044F69772C1F30311C0F6000208
:10144000515C40F2100220FA01F140F20C00C2F2AD
:1014500000000068C2F200021160FFF793FE002056
:1014600001B0BDE8F083000040F2100041F2040139
:10147000C2F20000C4F202010068096844F6A772D3
:10148000C1F30221C0F60002515CC8407047000061
:10149000002804BF012070472DE9F04182B00446C6
:1014A000007841F20006C007C4F202060CD0706852
:1014B00000F00C00042840F081803068800303D5E0
:1014C0006068002800F04681207880071BD570688E
:1014D00010F00C0F09D0706800F00C00082840F0E4
:1014E00087807068C00300F183803068800703D56F
:1014F0002069012840F02E813068616920F0F800F1
:1015000040EAC10030602078000713D420784007FB
:101510002CD4E569002D00F01881706800F00C00F3
:10152000082840F0A780012D40F00481012002B07E
:10153000BDE8F081A069002800F084800020C4F29A
:1015400042200121C0F88014FFF70CFD054600BFC2
:10155000706A800700F1B280FFF704FD401B02288B
:10156000F6D9032002B0BDE8F08100BFF0695FEA60
:10157000C00808D4F06940F08050F061F06900F0D4
:1015800080500090009847F20007C4F200073868C6
:10159000C00549D4386840F480703860FFF7E2FC39
:1015A000054600BF3868C0053ED4FFF7DBFC401B92
:1015B0006428F7D9032002B0BDE8F081706800F01C
:1015C0000C00082803D17068C0033FF576AF61684E
:1015D0003068002900F00C81B1F5A02F00F00081E7
:1015E000B1F5803F40F01A8140F480301CE100BF2B
:1015F0002069002840F20000C4F2422000F08880F8
:1016000001210160FFF7AEFC054600BF306880078E
:101610003FF572AFFFF7A6FC401B0228F6D9032066
:1016200002B0BDE8F08100BFE168306A002900F037
:101630009D80052900F09280012940F0AF8040F0A4
:101640000100B1E00020C4F242200021C0F8801463
:10165000FFF788FC054600BF706A80077FF556AF2C
:10166000FFF780FC401B0228F6D9032002B0BDE83A
:10167000F08100BF0027C4F2422700203866FFF740
:1016800071FC022D05460DD13068800140F1DE80ED
:10169000FFF768FC401B02284FF00300F4D902B0AA
:1016A000BDE8F081306880014FD5FFF75BFC401B3F
:1016B00002284FF00300F5D9F1E700BF40F2100017
:1016C000C2F20000006844F6D351C1F26201A0FBEF
:1016D0000101480A019000BF00BF0198411E002887
:1016E00001913FF413AF00BF0198411E0028019102
:1016F0003FF40CAF00BF0198411E002801913FF458
:1017000005AF00BF0198411E00280191E4D1FDE61C
:1017100000210160FFF726FC054600BF3068800706
:101720007FF5F1AEFFF71EFC401B02284FF00300CF
:10173000F4D9B4E77068216A00F480328A4209D192
:10174000616A00F47010884204D1002002B0BDE844
:10175000F08100BF012002B0BDE8F08140F004003C
:101760003062306A40F001001EE000BF20F001004E
:101770003062306A20F004003062FFF7F3FB054668
:1017800041F28837306A800720D5FFF7EBFB401B1A
:10179000B8424FF00300F5D981E700BF20F0010007
:1017A0003062306A20F004003062FFF7DBFB054650
:1017B00041F28837306A800708D4FFF7D3FB401B1B
:1017C000B842F7D9032002B0BDE8F081B8F1000FAC
:1017D0003FF59FAEF06920F08050F06199E600BFC0
:1017E00040F480203060306840F480301CE000BF5E
:1017F00020F480303060306820F480203060FFF7C3
:10180000B1FB0546306880037FF55EAEFFF7AAFBAB
:10181000401B64284FF00300F4D940E720F48030E7
:101820003060306820F480203060FFF79BFB054675
:10183000306880033FF548AEFFF794FB401B6428F7
:10184000F6D9032002B0BDE8F08100BF206AB0F5F0
:10185000803F05D17168A26821F4003111437160A5
:101860007168626A21F474111143084370600120A9
:101870003866FFF777FB0446306880013FF565AFB7
:10188000FFF770FB001B02284FF00300F4D906E7B6
:1018900070B528B1416A29B100210161142106E027
:1018A000012070BD4168B1F5827F02D01C21002269
:1018B00042500026866290F8511029B980F8506095
:1018C000054600F039F82846022180F8511090E8CA
:1018D0002E0002F482720C6803F4044324F04004E6
:1018E0000C601A4405F4006305691A4405F002030C
:1018F00045691A4405F001038569C4691A4405F471
:1019000000731A4404F03803046A1A4404F0800394
:10191000846A1A4304F400531A430A60042202EA58
:1019200015424A60CA6922F40062CA610121466513
:1019300080F85110304670BD2DE9F04186B040F678
:1019400000050446C4F20105006805F52051002792
:1019500088420597CDE90377029703D006B0BDE82A
:10196000F08100BF41F21800C4F20200016802AE2B
:1019700041F480510160016840F21C0801F480517B
:10198000019101990168C4F2020841F0040101606B
:101990000068314600F0040001900198A0200290F8
:1019A00002200390032005902846FFF7CDF9402040
:1019B000CDE90207284631460497FFF7C5F940F202
:1019C0003C15C2F2000580262846C5E90087C5E916
:1019D0000276C5E90477C5E90677FFF75FF90028C5
:1019E00018BFFEF755FCE5646C6240F2801508F103
:1019F0001400C2F200051021002285E847002846A5
:101A0000C5E90422C5E90622FFF748F9002818BFF6
:101A1000FEF73EFCA5646C6206B0BDE8F0810000F4
:101A20002DE9F04182B0044690F85100012819D107
:101A300060681D4617460E46B0F5827F01D1A0684A
:101A4000A0B1FFF78FFA8046002E4FF0010018BFBB
:101A5000002F03D102B0BDE8F08100BF94F8500020
:101A6000012811D1022002B0BDE8F081042084F8E1
:101A700051002046314632463B46009500F0CEF9F3
:101A800002B0BDE8F08100BF012084F850000420BE
:101A9000002184F851006165A663A787E787216369
:101AA000A186E186A2682068B2F5004F21646164D6
:101AB00038D00168490640D5E168E08F002944D05C
:101AC00000287BD0681C0CD11BE000BFC068A16B54
:101AD00021F8020BA163E08F0138E087E08F002836
:101AE0006CD020688168C907F0D1FFF73BFAA0EB02
:101AF0000800A842F2D342E0FFF734FAE08F002852
:101B00005CD020688168C907F6D0C068A16B21F855
:101B1000020BA163E08F0138E087E08F0028F0D14D
:101B20004CE000BF016821F040010160016821F430
:101B30008041016001684906BED4016841F040015E
:101B40000160E168E08F0029BAD1B8B3681C0CD1FC
:101B500024E000BF007BA16B0870A06B0130A06384
:101B6000E08F0138E087E08F40B320688168C907C3
:101B7000F0D1FFF7F7F9A0EB0800A842F3D301205A
:101B800084F85100002084F85000032002B0BDE822
:101B9000F08100BFFFF7E6F9E08F78B12068816837
:101BA000C907F7D0007BA16B0870A06B0130A06360
:101BB000E08F0138E087E08F0028EFD16068B0F552
:101BC000827F11D1A068B0F5004F02D0B0F5806FD0
:101BD0000AD12168B0F5806F0A6822F040020A60DD
:101BE00002D12046012101E02046802100222B461F
:101BF000CDF8008000F06CFB28B1606D40F0200053
:101C0000606520206065012084F85100002084F880
:101C10005000606D002818BF012002B0BDE8F081BF
:101C20002DE9F04182B01D4616460F460446FFF7E7
:101C300099F994F8511001290ED18046002F4FF0E8
:101C4000010018BF002E03D102B0BDE8F08100BF33
:101C500094F85000012803D1022002B0BDE8F081C1
:101C6000012084F850000320002184F851006165B0
:101C70002763A686E686A163A187E187A068216421
:101C8000B0F5004F2068616407D1016821F0400180
:101C90000160016841F4804101600168490603D494
:101CA000016841F0400101606168731EE268B1FAA9
:101CB00081F1B3FA83F349095B09B2F5006F41EA98
:101CC000030139D131B137F8021BC1602763E08EBF
:101CD0000138E086E08E002870D0681C0BD11AE035
:101CE000216B31F8022BC2602163E08E0138E0865F
:101CF000E08E002862D0206881688907F0D4FFF761
:101D000031F9A0EB0800A842F2D338E0FFF72AF936
:101D1000E08E002852D0206881688907F6D5216BB3
:101D200031F8022BC2602163E08E0138E086E08E3C
:101D30000028F0D142E000BF39B139780173206B3F
:101D400001302063E08E0138E086E08EB0B3681C7D
:101D50000BD123E0216B09780173206B01302063E4
:101D6000E08E0138E086E08E40B320688168890704
:101D7000F0D4FFF7F7F8A0EB0800A842F3D3012056
:101D800084F85100002084F85000032002B0BDE820
:101D9000F08100BFFFF7E6F8E08E78B12068816837
:101DA0008907F7D5216B09780173206B0130206317
:101DB000E08E0138E086E08E0028EFD12046022137
:101DC00001222B46CDF8008000F082FA40B920466F
:101DD000802100222B46CDF8008000F079FA28B14E
:101DE000606D40F02000606520206065A06838B913
:101DF000002001902068C1680191806801900198DD
:101E0000012084F85100002084F85000606D002803
:101E100018BF012002B0BDE8F08100002DE9F043B9
:101E200083B01E4615460F460446FFF79BF894F80C
:101E300051108146012909D1002F4FF0010018BF30
:101E4000002D0FD103B0BDE8F08300BF6068B0F58E
:101E5000827F0DD104294FF00200F3D1A16800293F
:101E6000EAD0EFE7002EEDD094F85000012803D11E
:101E7000022003B0BDE8F083012084F8500094F8FC
:101E80005100002104281CBF052084F85100616521
:101E9000A563E687A6872763E6862068A686216471
:101EA00061640168490603D4016841F040010160A2
:101EB0006168731EE268B1FA81F1B3FA83F3DDF869
:101EC000288049095B09B2F5006F41EA030165D139
:101ED00031B137F8021BC1602763E08E0138E0861C
:101EE000012518F1010032D102E000BFFFF73AF8F6
:101EF000E08E18B9E08F002800F0B8802068816873
:101F000089070CD5E18E51B1012D08D1216B002537
:101F100031F8022BC2602163E18E0139E1868168CC
:101F2000C907E3D0E18F0029E0D0C068A16B01258B
:101F300021F8020BA163E08F0138E087D6E700BFEC
:101F4000FFF710F8A0EB0900404580F0AF80E08E6D
:101F500018B9E08F002800F089802068816889071F
:101F60000CD5E18E51B1012D08D1216B002531F83E
:101F7000022BC2602163E18E0139E1868168C907C5
:101F8000DED0E18F0029DBD0C068A16B012521F8EC
:101F9000020BA163E08F0138E087D1E739B13978CE
:101FA0000173206B01302063E08E0138E08601254B
:101FB00018F1010032D101E0FEF7D4FFE08E10B934
:101FC000E08F002852D02068816889070ED5E18E05
:101FD00061B1012D0AD1216B002509780173216BB4
:101FE000206801312163E18E0139E1868168C907EA
:101FF000E2D0E18F0029DFD0C068A16B0125087015
:10200000A06B0130A063E08F0138E087D4E700BF08
:10201000FEF7A8FFA0EB0900404547D2E08E08B9C3
:10202000E08F18B32068816889070ED5E18E61B111
:10203000012D0AD1216B002509780173216B2068DD
:1020400001312163E18E0139E1868168C907DFD062
:10205000E18F0029DCD0C068A16B01250870A06B5E
:102060000130A063E08F0138E087D1E720460221EC
:1020700001224346CDF8009000F02AF940B92046ED
:10208000802100224346CDF8009000F021F9B8B13C
:10209000606D40F02000606520206065002084F8BD
:1020A0005000012003B0BDE8F08300BF012084F898
:1020B0005100002084F85000032003B0BDE8F083F5
:1020C000A06838B9002002902068C1680291806839
:1020D00002900298012084F85100002084F85000FA
:1020E000606D002818BF012003B0BDE8F083000038
:1020F000411E0020B0EB116F1CBF012070474EF253
:102100001002CEF2000251604EF62351CEF20001D1
:10211000F0230B700721906011607047FEE700000C
:1021200080B540F2141046F20041C2F20000C4F241
:1021300000010422002380E80E0000F10C014FF49E
:10214000602C4FF4801E81E8085083618383FEF782
:1021500063FB002808BF80BDBDE88040FEF798B84B
:1021600080B582B041F21400C4F20200016800227E
:1021700041F0010101600068002100F001000190C0
:1021800001980C20FFF756F80C20FFF741F80D20BE
:1021900000210022FFF74EF80D2002B0BDE880407C
:1021A000FFF736B82DE9F04385B0002641F218005C
:1021B000CDE90366CDE90166C4F20200016840F68C
:1021C000000441F0200101600168C4F2010401F043
:1021D0002001009100990168002241F00401016092
:1021E00001684FF0180801F004010091009901689E
:1021F00041F0080101600068182100F0080000901B
:1022000000982046FEF7A8FE01AD4FF00209012715
:1022100020462946CDE901960397FEF795FD204615
:102220002946CDE90187CDE90369FEF78DFD05B0AB
:10223000BDE8F08380B540F2C41045F20041C2F21F
:102240000000C4F2000148F2A06200234FF4804C69
:10225000C0F2010280E80E00C0E9033CC0E905338A
:10226000C0E90733FEF784FE002808BF80BDBDE843
:102270008040FEF70DB8000080B540F2182043F210
:102280000001C2F20000C4F201014FF48272002387
:1022900080E80E0000F114014FF4007C4FF0180E9E
:1022A00081E808500A21C0E90333C0E90833C0E9D6
:1022B0000A31FFF7EDFA002808BF80BDBDE8804075
:1022C000FDF7E6BFFEE70000FEE7000070470000F4
:1022D0002DE9F04381B0089C984615460E4681468C
:1022E000FEF740FE201A00EB0804FEF73BFE40F22A
:1022F0001001C2F200010968C1F3CB3161430091C2
:10230000D9F800108A683240921BB2FA82F2520960
:10231000AA423DD0074618F1010031D0FEF722FE57
:10232000C01BA04238D2009800990028A1F10101F9
:102330000091D9F80010896808BF044601EA060038
:10234000801BB0FA80F04009A842E7D120E000BF2E
:1023500088683040801BB0FA80F04009A84217D04E
:1023600088683040801BB0FA80F04009A8420FD046
:1023700088683040801BB0FA80F04009A84207D03E
:1023800088683040801BB0FA80F04009A842DFD155
:10239000002001B0BDE8F083D9E900014268B1F541
:1023A000827F22F0E00242600BD1D9F80810B1F52B
:1023B000004F02D0B1F5806F03D1016821F04001D8
:1023C0000160D9F82810B1F5005F07D1016821F448
:1023D00000510160016841F400510160012089F859
:1023E0005100002089F85000032001B0BDE8F083BF
:1023F00070470000FEF7A4BE7047000040F21410C2
:10240000C2F20000FEF7D8B8FEE7000040F6000078
:10241000C4F2010010210122FEF79EBD0A460146CA
:1024200040F21820C2F200006423FFF7F9BA00005E
:1024300080B582B0FF208DF8070000208DF80600DF
:1024400040F218204FF0FF3CC2F200000DF10701EE
:102450000DF106020123CDF800C0FFF7DFFC9DF867
:10246000060002B080BD000040F60000C4F201008A
:1024700010210022FEF770BD0A46014640F21820E6
:10248000C2F200006423FFF7CBBB000080B582B02E
:102490008DF8070040F218204FF0FF3CC2F2000018
:1024A0000DF107010DF106020123CDF800C0FFF781
:1024B000B5FC02B080BD0000B0B582B040F214059A
:1024C000C2F20005E9680446884768698047686A7F
:1024D00070B1AA6A62B1200C8DF80500200A8DF84F
:1024E00006000DF1050003218DF8074090470AE032
:1024F000296AC4F307408847296AC4F3072088473C
:10250000296AE0B28847E8698047A9690446884794
:1025100028698047204602B0B0BD0000F0B581B008
:1025200040F21407C2F200070D46F9681446064649
:10253000884778698047786A90B1BA6A82B1300C6E
:102540008DF80100300A8DF802000DF10100032121
:102550008DF8036090477A6A28462146904713E039
:10256000396AC6F307408847396AC6F307208847A7
:10257000396AF0B288473CB1013D00BFF869804735
:10258000013C05F8010FF9D1B869804738698047E7
:1025900001B0F0BDF0B581B040F21406C2F2000601
:1025A0000C46F1680546884770698047B26A45F075
:1025B00004076AB1280C8DF80000280A8DF8010084
:1025C000684604218DF802708DF8034090470DE0B5
:1025D000316AC5F307408847316AC5F30720884749
:1025E000316AF8B28847316A20468847B069804727
:1025F0003069804701B0F0BD2DE9F04182B040F272
:102600001407C2F200078846F96814460646884750
:1026100078698047BA6A46F004058AB1300C8DF8B3
:102620000500300A8DF806000DF1050003218DF834
:1026300007509047BA6A40462146904714E000BFD1
:10264000396AC6F307408847396AC6F307208847C6
:10265000396AE8B288473CB1A8F10105396A15F832
:10266000010F8847013CF9D1B86980473869804734
:1026700002B0BDE8F081000070B58AB040F21414D9
:10268000C2F2000401250026694620460895CDE9DE
:102690000066CDE90266CDE90466CDE90665FDF781
:1026A00067FE20460221FDF7F9FD2046FEF7EAF914
:1026B00040F2A804C2F20004C4E90C66A663C4E9AF
:1026C0000466C4E90666C4E90866C4E90A662570BA
:1026D000FEF748FC60600AB070BD000040F2A80040
:1026E000C2F2000000780338B0FA80F04009704769
:1026F00040F2A800C2F200000021C0E90411C0E9C4
:102700000611016270470000F0B581B00D464FF030
:102710007F51044602F020F90026CBF6C07600284F
:1027200018BF4FF07F542046314602F015F943F2AE
:1027300033310028C3F6B361284608BF344602F09F
:10274000ADFA4FF07C5102F0A9FA06462046314618
:1027500002F0A0FB05462046314602F08DF825F038
:10276000004620F0004704463046394602F0F4F8AF
:10277000002818BF374638464FF07F5102F0ECF87A
:1027800006464FF07F50394602F00EF90746002EFC
:1027900008BF4FF07E572046394602F07FFA0446C4
:1027A0002846394602F07AFA4DF20A75C3F6A35567
:1027B000294602F0F9F84CF6EB16C4F21816314629
:1027C00002F06CFA07462046294602F0EDF8314641
:1027D00002F064FA0446384602F015F802F0DAF91D
:1027E0000546204602F00FF802F0D4F901462846CB
:1027F00001B0BDE8F04000F001B8000070B58AB04B
:102800004E424FF62371C0F260110191010A8DF81A
:1028100008008DF80910C10B000E8DF80B0040F276
:1028200001608DF80A10049000200821CDE9050010
:10283000079008918DF82400FEF794FB40F21415E0
:102840000446C2F2000500BF2846FDF7A1FE28B9E4
:10285000FEF788FB001B0528F6D908E040F21410AB
:10286000C2F2000004A901AA03ABFDF72FFD02206C
:10287000FEF756FA4FF62371C0F2602130B2019193
:10288000310A8DF80910C10B000E8DF80B0040F2D3
:1028900001608DF80A100490002008218DF808606E
:1028A000CDE90500079008918DF82400FEF75AFB4A
:1028B00040F214150446C2F2000500BF2846FDF799
:1028C00067FE38B9FEF74EFB001B0528F6D90AB0A3
:1028D00070BD00BF40F21410C2F2000004A901AAAA
:1028E00003ABFDF7F3FC0AB070BD000070B58AB011
:1028F000FEF738FB40F2A806C2F200063178042940
:1029000000F26D85DFE801F004704262180000BF3C
:1029100096F83810002900F06285716B40F6B732E6
:10292000411A914200F25B85002186F8381001219E
:10293000317000F053BD00BF7168401AB0F57A7F66
:1029400040F24D858020ADF80C0040F2012004904B
:1029500000200221CDE90500079008918DF82400A0
:10296000FEF700FB40F214150446C2F2000500BF5A
:102970002846FDF70DFE002840F02085FEF7F2FA0C
:10298000001B0528F4D900F022BD00BF0620ADF8D9
:102990000C0040F20120049000200221CDE9050046
:1029A000079008918DF82400FEF7DCFA40F2141528
:1029B0000446C2F2000500BF2846FDF7E9FDB8BB9A
:1029C000FEF7D0FA001B0528F6D93AE0318E00292F
:1029D00000F00585044600200021FFF70FFF0420CA
:1029E000307074600AB070BD2F20C0F214200190C6
:1029F000FE20029040F20160049000200821CDE901
:102A00000500079008918DF82400FEF7ABFA40F21C
:102A100014150446C2F200052846FDF7B9FD00284A
:102A20006ED1FEF79FFA001B0528F5D971E000BFB3
:102A300040F21410C2F2000004A903AA01ABFDF792
:102A400045FC0520FEF76CF907208DF80C0040F2DC
:102A50000120049000200221CDE905000790089193
:102A60008DF82400FEF77EFA40F214150446C2F2F7
:102A7000000500BF2846FDF78BFD28B9FEF772FA66
:102A8000001B0528F6D908E040F21410C2F200003D
:102A900004A903AA01ABFDF719FC0520FEF740F9D4
:102AA0000F208DF80C0040F201200490002002213C
:102AB000CDE90500079008918DF82400FEF752FA41
:102AC00040F214150446C2F2000500BF2846FDF787
:102AD0005FFD28B9FEF746FA001B0528F6D908E085
:102AE00040F21410C2F2000004A903AA01ABFDF7E2
:102AF000EDFB0A20FEF714F9032000F06CBC00BFC8
:102B000040F21410C2F2000004A901AA03ABFDF7C1
:102B1000DDFB0520FEF704F92320C0F2161001901A
:102B20001020C6F24000029040F2016004900020A4
:102B30000821CDE90500079008918DF82400FEF7E3
:102B400011FA40F214150446C2F200052846FDF7BA
:102B50001FFD28B9FEF706FA001B0528F6D908E084
:102B600040F21410C2F2000004A901AA03ABFDF761
:102B7000ADFB0520FEF7D4F82F20C0F2160001901F
:102B80000120029040F20160049000200821CDE96C
:102B90000500079008918DF82400FEF7E3F940F254
:102BA00014150446C2F200052846FDF7F1FC28B9C9
:102BB000FEF7D8F9001B0528F6D908E040F21410FA
:102BC000C2F2000004A901AA03ABFDF77FFB0520B8
:102BD000FEF7A6F840F22F10C0F214200190FE205C
:102BE000029040F20160049000200821CDE9050028
:102BF000079008918DF82400FEF7B4F940F21415FF
:102C00000446C2F2000500BF2846FDF7C1FC28B902
:102C1000FEF7A8F9001B0528F6D908E040F21410C9
:102C2000C2F2000004A901AA03ABFDF74FFB052087
:102C3000FEF776F840F22310C0F21610019040F231
:102C40002030C6F2FF00029040F2016004900020A4
:102C50000821CDE90500079008918DF82400FEF7C2
:102C600081F940F214150446C2F200052846FDF72A
:102C70008FFC28B9FEF776F9001B0528F6D908E085
:102C800040F21410C2F2000004A901AA03ABFDF740
:102C90001DFB0520FEF744F840F22F10C0F216008D
:102CA00001900120029040F2016004900020082170
:102CB000CDE90500079008918DF82400FEF752F940
:102CC00040F214150446C2F2000500BF2846FDF785
:102CD0005FFC28B9FEF746F9001B0528F6D908E085
:102CE00040F21410C2F2000004A901AA03ABFDF7E0
:102CF000EDFA0520FEF714F82F20ADF804001A2095
:102D00008DF80600002040F20161CDE90410082191
:102D1000CDF807008DF80B00CDE9060008918DF87D
:102D20002400FEF71FF940F214150446C2F2000514
:102D30002846FDF72DFC28B9FEF714F9001B0528DD
:102D4000F6D908E040F21410C2F2000004A901AA6A
:102D500003ABFDF7BBFA0520FDF7E2FF2320C0F22D
:102D60001A10019040F22010C6F26C00029040F25E
:102D70000160049000200821CDE90500079008912A
:102D80008DF82400FEF7EEF840F214150446C2F266
:102D9000000500BF2846FDF7FBFB28B9FEF7E2F867
:102DA000001B0528F6D908E040F21410C2F200001A
:102DB00004A901AA03ABFDF789FA0520FDF7B0FFCE
:102DC0002320C0F21A20019040F22020C6F26C00AD
:102DD000029040F20160049000200821CDE9050036
:102DE000079008918DF82400FEF7BCF840F2141506
:102DF0000446C2F2000500BF2846FDF7C9FB28B90A
:102E0000FEF7B0F8001B0528F6D908E040F21410D0
:102E1000C2F2000004A901AA03ABFDF757FA05208E
:102E2000FDF77EFF2F20C0F218200190FF200290B6
:102E300040F20160049000200821CDE905000790D0
:102E400008918DF82400FEF78DF840F21415044621
:102E5000C2F200052846FDF79BFB28B9FEF782F871
:102E6000001B0528F6D908E040F21410C2F2000059
:102E700004A901AA03ABFDF729FA0520FDF750FFCD
:102E80002B20C0F2185001902820029040F20160DF
:102E9000049000200821CDE90500079008918DF8E5
:102EA0002400FEF75FF840F214150446C2F2000554
:102EB0002846FDF76DFB28B9FEF754F8001B0528DE
:102EC000F6D908E040F21410C2F2000004A901AAE9
:102ED00003ABFDF7FBF90520FDF722FF2F20C0F221
:102EE0001A0001900220029040F20160049000203C
:102EF0000821CDE90500079008918DF82400FEF720
:102F000031F840F214150446C2F200052846FDF7D8
:102F10003FFB28B9FEF726F8001B0528F6D908E084
:102F200040F21410C2F2000004A901AA03ABFDF79D
:102F3000CDF90520FDF7F4FE40F22F20ADF8040096
:102F40001A208DF80600002040F20161CDE904103E
:102F50000821CDF807008DF80B00CDE90600089197
:102F60008DF82400FDF7FEFF40F214150446C2F26E
:102F7000000500BF2846FDF70BFB28B9FDF7F2FF5F
:102F8000001B0528F6D908E040F21410C2F2000038
:102F900004A901AA03ABFDF799F90520FDF7C0FECE
:102FA00040F22320C0F21A10019040F22010C6F225
:102FB0006400029040F20160049000200821CDE9F5
:102FC0000500079008918DF82400FDF7CBFF40F233
:102FD00014150446C2F200052846FDF7D9FA28B9AF
:102FE000FDF7C0FF001B0528F6D908E040F21410D9
:102FF000C2F2000004A901AA03ABFDF767F905209E
:10300000FDF78EFE40F22320C0F21A20019040F21C
:103010002020C6F26400029040F20160049000207B
:103020000821CDE90500079008918DF82400FDF7EF
:1030300099FF40F214150446C2F200052846FDF738
:10304000A7FA28B9FDF78EFF001B0528F6D908E07E
:1030500040F21410C2F2000004A901AA03ABFDF76C
:1030600035F90520FDF75CFE40F22F20C0F2182054
:103070000190FF20029040F201600490002008219E
:10308000CDE90500079008918DF82400FDF76AFF4F
:1030900040F214150446C2F2000500BF2846FDF7B1
:1030A00077FA28B9FDF75EFF001B0528F6D908E07E
:1030B00040F21410C2F2000004A901AA03ABFDF70C
:1030C00005F90520FDF72CFE40F22B20C0F2185028
:1030D00001902820029040F2016004900020082115
:1030E000CDE90500079008918DF82400FDF73AFF1F
:1030F00040F214150446C2F2000500BF2846FDF751
:1031000047FA28B9FDF72EFF001B0528F6D908E07D
:1031100040F21410C2F2000004A901AA03ABFDF7AB
:10312000D5F80520FDF7FCFD40F22F20C0F21A0073
:1031300001900220029040F20160049000200821DA
:10314000CDE90500079008918DF82400FDF70AFFEE
:1031500040F214150446C2F2000500BF2846FDF7F0
:1031600017FA28B9FDF7FEFE001B0528F6D908E07E
:1031700040F21410C2F2000004A901AA03ABFDF74B
:10318000A5F80520FDF7CCFD46F22F00C0F2600047
:1031900001900320029040F2016004900020082179
:1031A000CDE90500079008918DF82400FDF7DAFEBF
:1031B00040F214150446C2F2000500BF2846FDF790
:1031C000E7F928B9FDF7CEFE001B0528F6D908E07F
:1031D00040F21410C2F2000004A901AA03ABFDF7EB
:1031E00075F80520FDF79CFD48F22330C0F2601011
:1031F00001906420029040F20160049000200821B8
:10320000CDE90500079008918DF82400FDF7AAFE8E
:1032100040F214150446C2F2000500BF2846FDF72F
:10322000B7F928B9FDF79EFE001B0528F6D908E07E
:1032300040F21410C2F2000004A901AA03ABFDF78A
:1032400045F80520FDF76CFD48F22330C0F2602000
:1032500001906420029040F2016004900020082157
:10326000CDE90500079008918DF82400FDF77AFE5E
:1032700040F214150446C2F2000500BF2846FDF7CF
:1032800087F928B9FDF76EFE001B0528F6D908E07E
:1032900040F21410C2F2000004A901AA03ABFDF72A
:1032A00015F80520FDF73CFD48F22340C0F2601000
:1032B00001906420029040F20160049000200821F7
:1032C000CDE90500079008918DF82400FDF74AFE2E
:1032D00040F214150446C2F2000500BF2846FDF76F
:1032E00057F928B9FDF73EFE001B0528F6D908E07E
:1032F00040F21410C2F2000004A901AA03ABFCF7CB
:10330000E5FF0520FDF70CFD48F22340C0F26020E8
:1033100001906420029040F2016004900020082196
:10332000CDE90500079008918DF82400FDF71AFEFD
:1033300040F214150446C2F2000500BF2846FDF70E
:1033400027F928B9FDF70EFE001B0528F6D908E07D
:1033500040F21410C2F2000004A901AA03ABFCF76A
:10336000B5FF0520FDF7DCFC40F20110ADF80C00C4
:1033700000200221CDE90400CDE9060008918DF876
:103380002400FDF7EFFD40F214150446C2F20005DB
:103390002846FDF7FDF828B9FDF7E4FD001B0528D8
:1033A000F6D908E040F21410C2F2000004A903AA02
:1033B00001ABFCF78BFF32200AE000BF40F2141093
:1033C000C2F2000004A903AA01ABFCF77FFF64204E
:1033D000FDF7A6FC02203070FDF7C4FD70600AB056
:1033E00070BD000000200021FFF708BA072882BF47
:1033F000FF2040B2704770B5044646014FF4847018
:1034000040EA441528461021FFF7C4F82846FFF784
:1034100053F80028FAD146F402701F21FFF7BAF8DA
:1034200040F2E401C2F2000101200A884B88A0406A
:10343000824323EA00000A80488001EB4400002216
:103440008281081946F44274027100BF2046FFF7DA
:1034500033F80028FAD10120BDE8704040B270472F
:103460002DE9F04F85B042F2086101EB4017390AAF
:10347000019142F2087101EB401840F2140A4FEA40
:103480001825C2F2000A4FF0000B1CE0DAF82010F9
:1034900000208847DAF8201028468847DAF82010FC
:1034A0005FFA88F08847DAF81C0034028047DAF8BF
:1034B000181006468847DAF81000804744EA060BE1
:1034C000D94500F0AD80DAF80C008047DAF8140036
:1034D0008047DAF8240078B1DAF8282062B10020B9
:1034E0008DF80800019803218DF8090002A88DF8D5
:1034F0000A7090470CE000BFDAF8201000208847DF
:10350000DAF8201001988847DAF82010F8B28847D6
:10351000DAF81C008047DAF8181006468847DAF80F
:1035200010008047DAF80C008047DAF81400804772
:10353000DAF8240070B1DAF828205AB100208DF8AA
:103540000B000DF10B0003218DF80C508DF80D8050
:1035500090470CE0DAF8201000208847DAF82010B5
:1035600028468847DAF820105FFA88F08847DAF8AA
:103570001C0034028047DAF8181006468847DAF84B
:103580001000804754EA06099AD0DAF80C00804708
:10359000DAF814008047DAF8240078B1DAF8282045
:1035A00062B100208DF80E00019803218DF80F0004
:1035B0000DF10E008DF8107090470BE0DAF8201036
:1035C00000208847DAF8201001988847DAF82010A0
:1035D000F8B28847DAF81C008047DAF81810064677
:1035E0008847DAF810008047DAF80C008047DAF8EC
:1035F00014008047DAF8240000283FF447AFDAF8D7
:103600002820002A3FF442AF00208DF811000DF170
:10361000110003218DF812508DF81380904742E776
:103620001FFA8BF005B0BDE8F08F00002DE9F04FD8
:1036300085B042F2080141EA4017390A019142F28D
:10364000081101EB401840F2140A4FEA1825C2F2A3
:10365000000A4FF0000B1CE0DAF820100020884729
:10366000DAF8201028468847DAF820105FFA88F048
:103670008847DAF81C0034028047DAF8181006464A
:103680008847DAF81000804744EA060BD94500F075
:10369000AD80DAF80C008047DAF814008047DAF8D9
:1036A000240078B1DAF8282062B100208DF80800F3
:1036B000019803218DF8090002A88DF80A7090473F
:1036C0000CE000BFDAF8201000208847DAF820105C
:1036D00001988847DAF82010F8B28847DAF81C0019
:1036E0008047DAF8181006468847DAF81000804755
:1036F000DAF80C008047DAF814008047DAF8240082
:1037000070B1DAF828205AB100208DF80B000DF1C5
:103710000B0003218DF80C508DF80D8090470CE0C4
:10372000DAF8201000208847DAF820102846884769
:10373000DAF820105FFA88F08847DAF81C003402C3
:103740008047DAF8181006468847DAF810008047F4
:1037500054EA06099AD0DAF80C008047DAF8140027
:103760008047DAF8240078B1DAF8282062B1002026
:103770008DF80E00019803218DF80F000DF10E0059
:103780008DF8107090470BE0DAF820100020884781
:10379000DAF8201001988847DAF82010F8B2884744
:1037A000DAF81C008047DAF8181006468847DAF87D
:1037B00010008047DAF80C008047DAF814008047E0
:1037C000DAF8240000283FF447AFDAF82820002A6E
:1037D0003FF442AF00208DF811000DF111000321DC
:1037E0008DF812508DF81380904742E71FFA8BF046
:1037F00005B0BDE8F08F000096B0FDF7AFFC0025E6
:103800000120CDE91155CDE90F550C9010904FF4E2
:10381000E0100CAC4FF48031022615902046CDE923
:103820000D15CDE91361FDF733FE28B1EFF31080DC
:1038300072B600BFFEE700BF0F20CDE906064FF4C9
:103840008060CDE9090506A802210895FDF72EFD47
:1038500020B1EFF3108072B6FEE700BF4AF2010715
:10386000FEF7A0FCFEF77CFCFEF75AFCFEF7E2FC3C
:10387000FEF702FD40F60005C4F2010528461021BE
:103880000122FDF769FB2846082100224FF00009BC
:10389000FDF762FB0A20FDF743FA284608210122C2
:1038A000FDF75AFB3220FDF73BFA42F2694042F243
:1038B0000D41C0F60000C0F6000100F04FFA42F2E0
:1038C000314042F28D41C0F60000C0F6000100F028
:1038D00061FA42F21D4042F27941C0F60000C0F6A2
:1038E000000100F079FA44F68070C0F6000090E81C
:1038F0002E100DF1180E8EE82E10818A807DADF805
:103900002C108DF82E0006A800F022FF4FF4645012
:10391000FEF7D2FD40F20815C2F200052870002023
:10392000022142F2B822002300F08AFBFEF7A4FE37
:10393000FEF7DEFE40F20000C2F2000040F2CC0AC8
:1039400004F1040800F1020BC2F2000A03E000BF18
:103950000520FDF7E5F9FEF7C9FF0020FFF780FD20
:103960000C28C0F0818040F20006002021460C2285
:103970005B46C2F20006009600F0EAF99DF83000BE
:10398000AA2871D19DF8310055286DD14FF6FF72EC
:103990006FF0010021188B78C9785A4087EA5203EA
:1039A000D60708BF530887EA5302DE0708BF5A0844
:1039B00087EA5203D60708BF530887EA5302DE0797
:1039C00008BF5A0887EA5203D60708BF530887EA98
:1039D0005302DE0708BF5A0887EA5203D60708BF1A
:1039E000530887EA5302DE0708BF5A08514087EAA6
:1039F0005102CB0708BF4A0887EA5201D30708BF24
:103A0000510887EA5102CB0708BF4A0887EA5201EA
:103A1000D30708BF510887EA5102CB0708BF4A08FD
:103A200087EA5201D30708BF510887EA5103CA0742
:103A300008BF4B0887EA5302D90700F1020008BF0C
:103A40005A080828A6D1BDF83A0082420CD1FDF7E9
:103A500089FA6860FEF742FE30B1DDF83200DDF829
:103A60003610FEF751FE00BFFDF77CFA6968401A78
:103A7000FB2828BFFFF7B6FCFDF774FAA968401AC7
:103A80001428FFF465AFFDF76DFAA86080200C9054
:103A900040F21410C2F200002146002205ABC8E932
:103AA0000099C8E90299FCF711FC4AF65520ADF8D7
:103AB0000400BAF8000040F20003ADF80600BAF8BE
:103AC0000200C2F20003ADF80800DAF8040001A910
:103AD000CDF80A00DAF808001022CDF80E00BAF886
:103AE0000C0033F8026BADF812000020009600F0D5
:103AF0009BFA2DE72DE9F04F85B0072806D94FF046
:103B0000FF37384605B0BDE8F08F00BF4FEA401AD6
:103B100004460AF10800154699460291FEF7CCFCCE
:103B200000F00F010B296FF00407EAD8012202FA16
:103B300001F140F61C021142E3D0002D42D040F2C8
:103B4000E401C2F2000101EB440BBBF80C100029A8
:103B50003ED0002700F007000299042800F09B8067
:103B6000032857D0022840F08180BBF80C000028C1
:103B700040F0C5800E9F03A92046082200F03CFBC0
:103B80004AF4847630464021FEF704FD3046FEF7C5
:103B900093FC0028FAD10398BDF81010C9F8000072
:103BA00008BABDF81210000C388008BA40F2E401DF
:103BB000C2F20001214480220A710299000CABF884
:103BC0000C009CE06FF00D07384605B0BDE8F08FA3
:103BD000019001204AF4427600FA04F802E000BFA6
:103BE000002F51D12046FFF73BFC07463046FEF739
:103BF00063FC002842D040F2E400C2F200000088DA
:103C000018EA000FECD0002FEAD10027384605B0A3
:103C1000BDE8F08FBBF80C00002878D103A920463E
:103C2000062200F0E9FA4AF4847630464021FEF795
:103C3000B1FC00BF3046FEF73FFC0028FAD10398E4
:103C4000BDF81010C9F8000008BA010CABF80C1050
:103C500040F2E401C2F20001214480220A71B5EB76
:103C6000104F88BF050C02994CE000BF2046394632
:103C700000F0B6FBABF80C7049E000BF6FF0030733
:103C8000384605B0BDE8F08F019800F007000299B2
:103C900004287FF465AFBBF80C0078BB03A920466D
:103CA000022200F0A9FA4AF4847630464021FEF759
:103CB00071FC00BF3046FEF7FFFB0028FAD1BDF8CB
:103CC0000C006FF0010100BA01EB104081B240F22C
:103CD000EB529142ABF80C0008D32046FFF786FB6D
:103CE0006FF47A77384605B0BDE8F08F40F2E40112
:103CF000C2F20001214480220A71029980B2A842D6
:103D000038BF054620462A4600F076FA2F464AF488
:103D1000847528464021FEF73DFC00BF2846FEF78B
:103D2000CBFB0028FAD1BBF80C00C01BABF80C0091
:103D300040F2E400C2F2000020440EBF00210179ED
:103D400041F001010171384605B0BDE8F08F000077
:103D5000DDF800C0CDF800C0FFF7CCBE0028024659
:103D600018BF012200290B4618BF01231A4044F254
:103D70004D72C0F6000218BF024644F24970C0F608
:103D8000000018BF084640F21401C2F20001C1E968
:103D90000520704740F2140CC2F2000CBCF8003051
:103DA0009B0501D4FEE700BF002803460A4618BF62
:103DB0000123002918BF01221A4044F2D172C0F633
:103DC000000218BF024644F60500C0F6000018BF06
:103DD0000846CCE90720704740F2140CC2F2000CF0
:103DE000BCF800309B0501D4FEE700BF0028034665
:103DF0000A4618BF0123002918BF01221A4044F2C5
:103E0000A172C0F6000218BF024644F2D570C0F697
:103E1000000018BF0846CCE909207047072884BF76
:103E20004FF0FF3070472DE9F04F81B04FEA401955
:103E300009F10806054630461F4614468846FEF737
:103E40003BFB00F00F010B296FF0040023D8012287
:103E500002FA01F140F61C0211421CD0DDF828A044
:103E60003046FEF729FB042818D1002C00F0928080
:103E7000386800BA28B93046FEF71EFB400740F10B
:103E80008380BAF1000F17D13046FEF715FB4007CB
:103E900012D46FF00A0001B0BDE8F08F0B99102921
:103EA00005D0042970D100F0FE010A2978D16FF005
:103EB000040001B0BDE8F08F49F4427B5846FEF79C
:103EC000FBFA222818BF422840F08E8040F60840B6
:103ED00040EA090039460422FEF78EFB41F2080051
:103EE00040EA09004FEA1A21FEF754FB41F208109C
:103EF00040EA09005FFA8AF1FEF74CFB41F60870D0
:103F000040EA0900FEF7D8FA800280B2A04238BF2A
:103F10000446012040F2E40A00FA05F6C2F2000A63
:103F20002846FFF783FB07465846FEF7C5FA0028E8
:103F300062D0BAF80000064218BFBC4262D8BC4248
:103F4000EED828464146224600F004FB49F4847529
:103F500028462021FEF71EFB2846FEF7ADFA002872
:103F6000FAD149F4027500BF2846FEF7A5FAC1064A
:103F70004CD40007F8D528460821FEF70BFB6FF05C
:103F80000C0001B0BDE8F08F6FF00B0001B0BDE890
:103F9000F08F00BF6FF00D0001B0BDE8F08F00BFE3
:103FA00040F6084141EA09018346084639460422A1
:103FB000FEF722FB0BF0030002287FF456AFBAF1A4
:103FC000000F2BD041F2080040EA09004FEA1A2105
:103FD000FEF7E0FA41F2081040EA09005FFA8AF1C0
:103FE000FEF7D8FA41E700BF32283FF46FAF6FF019
:103FF000060001B0BDE8F08F6FF0030001B0BDE82E
:10400000F08F00BF002001B0BDE8F08F28461021DE
:10401000FEF7C0FA204601B0BDE8F08F6FF00A004D
:1040200001B0BDE8F08F000080B582B0DDF810C0AF
:104030004FF0040ECDE900CEFFF7F0FE02B080BDD8
:10404000072882BFFF2040B270472DE9F04F85B0AE
:10405000904601F00F0204460E2A4FF0FB0000F2DA
:104060009B801D460123934044F61C473B4200F0D1
:104070009980680700F1B98045B1022900F0A88055
:10408000012903D115F0210F00F0AF804FF48470A7
:1040900040EA44170391384610214FEA441AFEF7CC
:1040A00079FA00BF3846FEF707FA0028FAD14AF439
:1040B00002701F21FEF76EFA0120A04040F2E409D1
:1040C000C2F20009C243B9F800100292B9F8022006
:1040D000814322EA0000A9F80010A9F8020009EBC8
:1040E0004401002009EB040B4AF4427601918881D7
:1040F0008BF804003046FEF7DFF90028FAD1039967
:1041000005F0F0024AF008001143FEF743FAB8F157
:10411000000F11D140F24000C2F20000B0F8008060
:104120004FF6F07308F101018AB29A4204BF4CF2D3
:104130000001CFF6FF7101804FEA18214AF4816037
:10414000FEF728FA4AF4A1605FFA88F1FEF722FA36
:1041500038460121FEF71EFA3846FEF7ADF9002871
:10416000FAD1B9F80000029A05F001011040A1400F
:104170000843B9F80210A9F8000001EA0200019909
:10418000A9F80200002088818BF804003046FEF771
:1041900093F90028FAD0204605B0BDE8F04F40B2B0
:1041A000704700BF012AF7D104AA4FF470600E4691
:1041B00011460422FEF7B2F90498314600287FF434
:1041C00058AFFD2005B0BDE8F04F40B2704700BFCA
:1041D00068B2002802D415F0200206D100283FF56D
:1041E00055AF15F010003FF451AFFA2005B0BDE80F
:1041F000F04F40B270470000002A08BF70472DE919
:10420000F04F83B040F21407C2F200079046FA68FC
:10421000019142F608014FEA401A01EB401990471C
:1042200078698047786A78B1BA6A6AB100208DF8F7
:1042300008004FEA19208DF8090002A803218DF823
:104240000A9090470BE000BF396A00208847396A1E
:104250004FEA19208847396A5FFA89F08847F86978
:104260008047B9690646884738698047F96842F649
:10427000081035020AEB000B884778698047786A96
:1042800070B1BA6A62B100208DF808004FEA1B20B5
:104290008DF8090002A803218DF80AB090470AE0C2
:1042A000396A00208847396A4FEA1B208847396AF3
:1042B0005FFA8BF08847F8698047B96906468847F6
:1042C00038698047F8682E434AF0180505EB062444
:1042D000804778698047786A90B1BA6A82B1200CC9
:1042E0008DF80800200A8DF8090002A803218DF836
:1042F0000A5090477A6A01984146904714E000BFFF
:10430000396AC4F307408847396AC4F307208847ED
:10431000396AE8B2884701984546441EF8698047E3
:10432000013D04F8010FF9D1B86980473869804729
:104330004644F968B0B2040A884778698047BA6A87
:1043400049F0040572B100208DF808004FEA1920E9
:104350008DF8090002A804218DF80A508DF80B4051
:1043600090470CE0396A00208847396A4FEA1920E3
:104370008847396AE8B28847396A20468847B86969
:10438000804738698047F868804778698047BA6A0B
:104390004BF0040472B100208DF808004FEA1B2096
:1043A0008DF8090002A804218DF80A408DF80B60F1
:1043B00090470CE0396A00208847396A4FEA1B2091
:1043C0008847396AE0B28847396AF0B28847B869E5
:1043D00080473869804703B0BDE8F04F7047000060
:1043E0002DE9F04385B040F21406C2F20006F268EF
:1043F000894642F60801470101EB40189047706971
:104400008047706A80B1B26A72B100208DF80600F0
:104410004FEA18208DF807000DF1060003218DF8F2
:10442000088090470BE000BF316A00208847316A5E
:104430004FEA18208847316A5FFA88F08847F069A8
:104440008047B1690546884730698047F16842F680
:1044500008102C020744884770698047706A78B159
:10446000B26A6AB100208DF80900380A8DF80A0096
:104470000DF1090003218DF80B70904709E000BF92
:10448000316A00208847316A380A8847316AF8B2B1
:104490008847F0698047B169054688473069804799
:1044A00004EB090000EB0509F1681FFA89F0040A22
:1044B000884770698047B26A48F0040572B10020ED
:1044C0008DF80C004FEA18208DF80D0003A8042188
:1044D0008DF80E508DF80F4090470CE0316A0020A7
:1044E0008847316A4FEA18208847316AE8B288471E
:1044F000316A20468847B069804730698047F06854
:10450000804770698047B26A47F0040472B10020A6
:104510008DF81000380A8DF8110004A804218DF8D8
:1045200012408DF8139090470DE000BF316A0020D3
:104530008847316A380A8847316AE0B28847316A69
:104540005FFA89F08847B06980473069804705B0D5
:10455000BDE8F083002A08BF70472DE9F04F83B013
:1045600040F21407C2F200079046FA68019142F245
:1045700008414FEA401A01EB40199047786980479B
:10458000786A78B1BA6A6AB100208DF808004FEAFB
:1045900019208DF8090002A803218DF80A90904790
:1045A0000BE000BF396A00208847396A4FEA1920BA
:1045B0008847396A5FFA89F08847F8698047B9699E
:1045C0000646884738698047F96842F20850350244
:1045D0000AEB000B884778698047786A70B1BA6A3D
:1045E00062B100208DF808004FEA1B208DF8090009
:1045F00002A803218DF80AB090470AE0396A00202A
:104600008847396A4FEA1B208847396A5FFA8BF07E
:104610008847F8698047B9690646884738698047FE
:104620002E43F8680AEB062404F1100580477869E8
:104630008047BA6A14347AB1280C8DF80800280A29
:104640008DF8090002A803218DF80A409047BA6A44
:1046500001984146904713E0396AC5F307408847FF
:10466000396AC5F307208847396AE0B2884701985C
:104670004546441E396A14F8010F8847013DF9D1B7
:10468000B8698047386980474644F968B0B2040A7F
:10469000884778698047BA6A49F0040572B10020FA
:1046A0008DF808004FEA19208DF8090002A80421AE
:1046B0008DF80A508DF80B4090470CE0396A0020C5
:1046C0008847396A4FEA19208847396AE8B288472B
:1046D000396A20468847B869804738698047F86852
:1046E000804778698047BA6A4BF0040472B10020B1
:1046F0008DF808004FEA1B208DF8090002A804215C
:104700008DF80A408DF80B6090470CE0396A002064
:104710008847396A4FEA1B208847396AE0B28847E0
:10472000396AF0B28847B86980473869804703B072
:10473000BDE8F04F70470000007870470170704787
:10474000704700007047000070470000704700008D
:1047500010B504464FF4106021460622FDF74CFFC9
:1047600004F10E014FF480700422FDF745FF04F1BF
:104770000A014FF4A0600422FDF73EFFA11D4FF493
:1047800070600422FDF738FFA07C40F20011D4F8DD
:104790001320C2F200010870C1F8012010BD000012
:1047A000002908BF7047F0B581B040F214070C46ED
:1047B000451E0026C2F20007F86980470136A6426E
:1047C00005F8010FF8D301B0BDE8F04070470000D4
:1047D00000207047002908BF7047F0B581B040F253
:1047E00014070C46451E0026C2F20007396A15F868
:1047F000010F88470136A642F8D301B0BDE8F0406A
:1048000070470000704770B5054600F013FB044682
:104810000146284600F03EFB15F0004F4FF07F4167
:104820000ED0B0F13F4F28BFB1EB400F0ED2B0F128
:104830007C5F1DDDB1EB400F1AD313E0044617E097
:10484000B0F13F4F08D9B1EB400F05D34FF07E5187
:10485000204600F01FFBF1E7B0F17C5F08DBB1EB15
:10486000400F05D34FF07E51204600F005F8E5E7F4
:10487000284664F31E0070BD90EA010F48BF81F026
:10488000004100F10E83421A3CBF801A89184FEA9A
:10489000D052A2EBD1534FF07F4C1CEA410F18BF0E
:1048A0009CEA026F00F03B804FF0004C4CEA002085
:1048B0004CEA012121FA03FC10EB0C0C1ED202F190
:1048C000FF325FEA1C2040EBC25038BF70471CF03B
:1048D0007F0F4FEA400C18BFBCF17F4F38BF7047C5
:1048E000C3F12003994008BF20F00100BCF17F4FC5
:1048F00038BF7047A0F1C04000F097BA4FEA3C00C3
:10490000000A40EBC25028BF1CF0FF0F4FEA400CDA
:10491000E6D018BFBCF17F4F38BF7047EAE79CEA8A
:10492000026F05D010EA5C0F08BF00F0004070472E
:1049300010B500F034FA00BF64FBBE3E10B500F0C5
:10494000F5F80CBF0120002010BD10B500F0EEF806
:1049500014BF0120002010BD10B500F037F98CBF46
:104960000120002010BD10B500F030F92CBF01204F
:10497000002010BD10B500F05DF994BF01200020AB
:1049800010BD10B500F056F934BF0120002010BD55
:10499000401058BFC0F14040491058BFC1F14041DC
:1049A0008142EFF3008070474FF47F0C1CEAD01275
:1049B0001EBF1CEAD11392EA0C0F93EA0C0F00F011
:1049C000858090EA010F48BF42F4807240F4000CE9
:1049D00041F400002CF07F4120F07F4000B5A2EBB5
:1049E000030281420FF2081CACEB504E9EF800E02F
:1049F000C0F100004FEA4E0E00FB0EFC38BF49002C
:104A00004FEA2C1C0CFB0EF34FEACE1E0EEB635E3E
:104A10004FEA112C0EFB0CFC4FEAC1214FEA1C534C
:104A200000FB031102F5FA024FEA112C0EFB0CFCFD
:104A30004FEA01314FEADC4C00FB0C1142EB224201
:104A4000C14228BF09184CEB03335DF804EB10EBAF
:104A5000410143EBC250B2F57C0F38BF704729D5F6
:104A600012F0F00F1CBF00F1C04000F00040704792
:104A7000008182838485868788898B8C8D8E8F9137
:104A80009293959697999A9C9D9FA0A2A3A5A7A85B
:104A9000AAACAEB0B2B3B5B7B9BCBEC0C2C5C7C987
:104AA000CCCED1D4D7D9DCDFE2E6E9ECF0F3F7FAEB
:104AB000FE0000004FEA400C0CF1807CBCF17E4F00
:104AC00028BF7047B0F1C04000F0AFB90CEAD11375
:104AD00090EA010F48BF42F48072624538BF6345D7
:104AE00007D213F47F0F16D080EA010000F00040D7
:104AF000704710B500F053F9097EFC3E00F005B890
:104B000080EA010000F00040704780EA010000F0F8
:104B1000004000F08AB912F47F0F04BF02487047CA
:104B200080EA010000F081B90000C07F50EA010C6A
:104B300000F113801CF5000F58BFBCF5000F01D425
:104B40008842704707D710F5000F58BF11F5000FC6
:104B500015D488427047894270471CF5000F04D570
:104B6000BCF5000FF7D5814270474FF0807C1CEBFD
:104B7000400F38BF1CEB410F01D28142704710B586
:104B800000F00DF9922449004FF000504FF0805191
:104B9000FFF7FEBE41000B0ED3F19E0208D950F480
:104BA00000034FEA032323FA02F048BF4042704754
:104BB00010B500F0F4F800BF49922480002070473F
:104BC0006FF0004282EA20007047000050EA010CBA
:104BD00000F113801CF5000F58BFBCF5000F01D485
:104BE0008842704707D710F5000F58BF11F5000F26
:104BF00015D488427047894270471CF5000F04D5D0
:104C0000BCF5000FF7D5814270474FF0807C1CEB5C
:104C1000400F38BF1CEB410F01D28142704710B5E5
:104C200000F0BDF8922449004FF080504FF0005141
:104C3000FFF7AEBE50EA010C00F113801CF5000F27
:104C400058BFBCF5000F01D48842704707D710F554
:104C5000000F58BF11F5000F15D4884270478942E4
:104C600070471CF5000F04D5BCF5000FF7D5814245
:104C700070474FF0807C1CEB400F38BF1CEB410F9E
:104C800001D28142704710B500F089F892244900A2
:104C90004FF000504FF08051FFF77ABE4FF47F0C79
:104CA0001CEAD0121EBF1CEAD11392EA0C0F93EA41
:104CB0000C0F00F0478090EA010F48BF42F4807269
:104CC0004FF0004C4CEA00204CEA012102EB0302B9
:104CD000A0FB0113A2F50002002918BF43F0010355
:104CE0005B0028BF4FEA330342EB22425FEA132CFA
:104CF0004CEBC2502EBFBCEB436FB2F57C0F70473C
:104D00004FEA036CBCF1004F08BF20F00100B2F580
:104D10007C0F38BF70470BD582F0FF0212F5803F41
:104D2000C8BF704700F1C040D8BF00F000407047D6
:104D300000F5000C5FEA4C0C48BF7047B0F1C04072
:104D400000F073B80CEAD11390EA010F48BF42F4A7
:104D50008072624538BF634504D280EA010000F0EA
:104D60000040704710B500F01AF800BF8900013EFE
:104D700000F007B800F009B85FEA410C5FEA1C6C6C
:104D800008D080EA010000F050B85FEA400C5FEA0A
:104D90001C6CF6D14FF00040A0F5800070470EF17A
:104DA000020E2EF0030E5EF8044B244204D44FEAA8
:104DB0004102B2F17F4F11D84FEA4003B3F17F4F68
:104DC0000CD80ED14FEAD07C0CEB4C0C0CF1020C41
:104DD000B2F17F4F08BF4CEBD17C04E04FF0080CE0
:104DE00001E04FEAD17C0CEB4C0324FA03F404F00D
:104DF0000704B4F1040C06D20EEB840CBDE810409D
:104E00004CF0010C6047DFE80CF0070802024FF09D
:104E10000040A0F5800010BD0846420018BFD2F146
:104E2000807288BF00F0004010BDFF2141EAD050E1
:104E3000C00570475FEA400C5FEA1C6CBCF17F0361
:104E400014D4D3F1170240F31C804FF0010C0CFA7C
:104E500002FCACF10103034020EA0300B3EB5C0267
:104E600008BF10EA0C0F88BF60447047B3F1FF3FE2
:104E700028BF5FEA002C00F0004088BF40F07E5061
:104E80007047BCF1FF0FB8BF704710B5FFF787FF41
:104E900040DBB6BE90EA010F48BF81F000413FF50C
:104EA000F2AC421A04D882F00042A0EB0200114496
:104EB0004FEAD052A2EBD1534FF07F4C1CEA410F86
:104EC00018BF9CEA026F4AD04FF0004C4CEA002019
:104ED0004CEA012121FA03FCB0EB0C0C0FD412F0C8
:104EE000FE0F36D05FEA4C001DD5001240EBC250D9
:104EF00038BF70471CF03F0F18BF70470BE05FEAE8
:104F00001C20A2F1010240EBC25038BF70471CF0D8
:104F10007F0F18BF7047C3F12003994014BF401E94
:104F200020F0010070474FEA1223800808BF704745
:104F3000B0FA80FCA2EB0C02CCF1280C60FA0CF069
:104F400093EA122F04BF00EBC25070474FEAC370C0
:104F50007047130A5FEADC1008BF7047F6E79CEA67
:104F6000026F04D010EA5C0F08BF0020704710B534
:104F7000FFF715FF40DFF63E81F00040704700006C
:104F80000008DC556677C0A80164FFFFFF00C0A8D9
:104F900001010808080801000000000000000001ED
:104FA00002030406070809000000000102030401CF
:104FB0000202030405060708090A0B0C0D0E0F1068
:104FC00010000000E84F000800000020480000002A
:104FD0005001000830500008480000203008000050
:104FE0007001000800000000B822C0A8010A0000FB
:104FF000010000001000000000127A000002573586
:1050000035303000000000004147000845470008E7
:105010004D47000849470008394700083D47000848
:10502000000000000000000000C0000000000000C0
:04000005080000ED02
:00000001FF
